{
  "address": "0x8750753695D7F994eF159Cc52B49f0930374D4CE",
  "abi": [
    {
      "inputs": [
        {
          "internalType": "address",
          "name": "_MOCKUSDT_ADDRESS",
          "type": "address"
        }
      ],
      "stateMutability": "nonpayable",
      "type": "constructor"
    },
    {
      "anonymous": false,
      "inputs": [
        {
          "indexed": true,
          "internalType": "uint256",
          "name": "purchaseId",
          "type": "uint256"
        },
        {
          "indexed": true,
          "internalType": "address",
          "name": "by",
          "type": "address"
        }
      ],
      "name": "AppealRaised",
      "type": "event"
    },
    {
      "anonymous": false,
      "inputs": [
        {
          "indexed": true,
          "internalType": "address",
          "name": "seller",
          "type": "address"
        },
        {
          "indexed": false,
          "internalType": "uint256",
          "name": "planetId",
          "type": "uint256"
        }
      ],
      "name": "ApprovalDeclined",
      "type": "event"
    },
    {
      "anonymous": false,
      "inputs": [
        {
          "indexed": true,
          "internalType": "address",
          "name": "seller",
          "type": "address"
        },
        {
          "indexed": false,
          "internalType": "uint256",
          "name": "planetId",
          "type": "uint256"
        }
      ],
      "name": "ApprovalGranted",
      "type": "event"
    },
    {
      "anonymous": false,
      "inputs": [
        {
          "indexed": true,
          "internalType": "address",
          "name": "seller",
          "type": "address"
        },
        {
          "indexed": false,
          "internalType": "uint256",
          "name": "planetId",
          "type": "uint256"
        }
      ],
      "name": "ApprovalRequested",
      "type": "event"
    },
    {
      "anonymous": false,
      "inputs": [
        {
          "indexed": true,
          "internalType": "address",
          "name": "buyer",
          "type": "address"
        },
        {
          "indexed": false,
          "internalType": "uint256",
          "name": "purchaseId",
          "type": "uint256"
        },
        {
          "indexed": false,
          "internalType": "uint256",
          "name": "totalAmount",
          "type": "uint256"
        }
      ],
      "name": "Delivered",
      "type": "event"
    },
    {
      "anonymous": false,
      "inputs": [
        {
          "indexed": true,
          "internalType": "uint256",
          "name": "planetId",
          "type": "uint256"
        },
        {
          "indexed": false,
          "internalType": "string",
          "name": "planetName",
          "type": "string"
        },
        {
          "indexed": false,
          "internalType": "string",
          "name": "planetDescription",
          "type": "string"
        },
        {
          "indexed": true,
          "internalType": "address",
          "name": "ruler",
          "type": "address"
        }
      ],
      "name": "PlanetCreated",
      "type": "event"
    },
    {
      "anonymous": false,
      "inputs": [
        {
          "indexed": true,
          "internalType": "uint256",
          "name": "productId",
          "type": "uint256"
        },
        {
          "indexed": true,
          "internalType": "uint256",
          "name": "planetId",
          "type": "uint256"
        },
        {
          "indexed": true,
          "internalType": "address",
          "name": "seller",
          "type": "address"
        },
        {
          "indexed": false,
          "internalType": "string",
          "name": "name",
          "type": "string"
        },
        {
          "indexed": false,
          "internalType": "uint256",
          "name": "quantity",
          "type": "uint256"
        },
        {
          "indexed": false,
          "internalType": "uint256",
          "name": "price",
          "type": "uint256"
        }
      ],
      "name": "ProductAdded",
      "type": "event"
    },
    {
      "anonymous": false,
      "inputs": [
        {
          "indexed": true,
          "internalType": "address",
          "name": "buyer",
          "type": "address"
        },
        {
          "indexed": true,
          "internalType": "address",
          "name": "seller",
          "type": "address"
        },
        {
          "indexed": false,
          "internalType": "uint256",
          "name": "purchaseId",
          "type": "uint256"
        },
        {
          "indexed": false,
          "internalType": "uint256",
          "name": "totalAmount",
          "type": "uint256"
        }
      ],
      "name": "Refund",
      "type": "event"
    },
    {
      "anonymous": false,
      "inputs": [
        {
          "indexed": true,
          "internalType": "address",
          "name": "buyer",
          "type": "address"
        },
        {
          "indexed": false,
          "internalType": "uint256",
          "name": "purchaseId",
          "type": "uint256"
        },
        {
          "indexed": false,
          "internalType": "uint256",
          "name": "totalAmount",
          "type": "uint256"
        }
      ],
      "name": "Release",
      "type": "event"
    },
    {
      "anonymous": false,
      "inputs": [
        {
          "indexed": true,
          "internalType": "address",
          "name": "buyer",
          "type": "address"
        },
        {
          "indexed": false,
          "internalType": "uint256",
          "name": "purchaseId",
          "type": "uint256"
        },
        {
          "indexed": false,
          "internalType": "uint256",
          "name": "totalAmount",
          "type": "uint256"
        }
      ],
      "name": "Sale",
      "type": "event"
    },
    {
      "inputs": [],
      "name": "MOCKUSDT_ADDRESS",
      "outputs": [
        {
          "internalType": "address",
          "name": "",
          "type": "address"
        }
      ],
      "stateMutability": "view",
      "type": "function"
    },
    {
      "inputs": [
        {
          "internalType": "string",
          "name": "_productName",
          "type": "string"
        },
        {
          "internalType": "uint256",
          "name": "_planetId",
          "type": "uint256"
        },
        {
          "internalType": "address",
          "name": "_seller",
          "type": "address"
        },
        {
          "internalType": "uint256",
          "name": "_quantity",
          "type": "uint256"
        },
        {
          "internalType": "uint256",
          "name": "_price",
          "type": "uint256"
        }
      ],
      "name": "addProduct",
      "outputs": [],
      "stateMutability": "nonpayable",
      "type": "function"
    },
    {
      "inputs": [
        {
          "internalType": "uint256",
          "name": "",
          "type": "uint256"
        }
      ],
      "name": "appeals",
      "outputs": [
        {
          "internalType": "bool",
          "name": "",
          "type": "bool"
        }
      ],
      "stateMutability": "view",
      "type": "function"
    },
    {
      "inputs": [
        {
          "internalType": "address",
          "name": "",
          "type": "address"
        }
      ],
      "name": "approvalRequests",
      "outputs": [
        {
          "internalType": "uint256",
          "name": "",
          "type": "uint256"
        }
      ],
      "stateMutability": "view",
      "type": "function"
    },
    {
      "inputs": [
        {
          "internalType": "address",
          "name": "_seller",
          "type": "address"
        }
      ],
      "name": "approveSeller",
      "outputs": [],
      "stateMutability": "nonpayable",
      "type": "function"
    },
    {
      "inputs": [
        {
          "internalType": "address",
          "name": "",
          "type": "address"
        }
      ],
      "name": "approvedSellers",
      "outputs": [
        {
          "internalType": "uint256",
          "name": "",
          "type": "uint256"
        }
      ],
      "stateMutability": "view",
      "type": "function"
    },
    {
      "inputs": [
        {
          "internalType": "uint256",
          "name": "_planetId",
          "type": "uint256"
        },
        {
          "internalType": "string",
          "name": "_planetName",
          "type": "string"
        },
        {
          "internalType": "string",
          "name": "_planetDescription",
          "type": "string"
        }
      ],
      "name": "createPlanet",
      "outputs": [],
      "stateMutability": "nonpayable",
      "type": "function"
    },
    {
      "inputs": [
        {
          "internalType": "address",
          "name": "_seller",
          "type": "address"
        }
      ],
      "name": "declineSeller",
      "outputs": [],
      "stateMutability": "nonpayable",
      "type": "function"
    },
    {
      "inputs": [
        {
          "internalType": "address",
          "name": "buyer",
          "type": "address"
        },
        {
          "internalType": "uint256",
          "name": "start",
          "type": "uint256"
        },
        {
          "internalType": "uint256",
          "name": "end",
          "type": "uint256"
        }
      ],
      "name": "getBuyerPurchases",
      "outputs": [
        {
          "components": [
            {
              "internalType": "uint256",
              "name": "purchaseId",
              "type": "uint256"
            },
            {
              "internalType": "uint256",
              "name": "productId",
              "type": "uint256"
            },
            {
              "internalType": "address",
              "name": "buyer",
              "type": "address"
            },
            {
              "internalType": "address",
              "name": "seller",
              "type": "address"
            },
            {
              "internalType": "uint256",
              "name": "amount",
              "type": "uint256"
            },
            {
              "internalType": "bool",
              "name": "isReleased",
              "type": "bool"
            },
            {
              "internalType": "bool",
              "name": "isDelivered",
              "type": "bool"
            },
            {
              "internalType": "bool",
              "name": "isRefunded",
              "type": "bool"
            }
          ],
          "internalType": "struct Duniverse.Purchase[]",
          "name": "",
          "type": "tuple[]"
        }
      ],
      "stateMutability": "view",
      "type": "function"
    },
    {
      "inputs": [
        {
          "internalType": "uint256",
          "name": "start",
          "type": "uint256"
        },
        {
          "internalType": "uint256",
          "name": "end",
          "type": "uint256"
        }
      ],
      "name": "getPurchases",
      "outputs": [
        {
          "components": [
            {
              "internalType": "uint256",
              "name": "purchaseId",
              "type": "uint256"
            },
            {
              "internalType": "uint256",
              "name": "productId",
              "type": "uint256"
            },
            {
              "internalType": "address",
              "name": "buyer",
              "type": "address"
            },
            {
              "internalType": "address",
              "name": "seller",
              "type": "address"
            },
            {
              "internalType": "uint256",
              "name": "amount",
              "type": "uint256"
            },
            {
              "internalType": "bool",
              "name": "isReleased",
              "type": "bool"
            },
            {
              "internalType": "bool",
              "name": "isDelivered",
              "type": "bool"
            },
            {
              "internalType": "bool",
              "name": "isRefunded",
              "type": "bool"
            }
          ],
          "internalType": "struct Duniverse.Purchase[]",
          "name": "",
          "type": "tuple[]"
        }
      ],
      "stateMutability": "view",
      "type": "function"
    },
    {
      "inputs": [
        {
          "internalType": "address",
          "name": "seller",
          "type": "address"
        },
        {
          "internalType": "uint256",
          "name": "start",
          "type": "uint256"
        },
        {
          "internalType": "uint256",
          "name": "end",
          "type": "uint256"
        }
      ],
      "name": "getSellerPurchases",
      "outputs": [
        {
          "components": [
            {
              "internalType": "uint256",
              "name": "purchaseId",
              "type": "uint256"
            },
            {
              "internalType": "uint256",
              "name": "productId",
              "type": "uint256"
            },
            {
              "internalType": "address",
              "name": "buyer",
              "type": "address"
            },
            {
              "internalType": "address",
              "name": "seller",
              "type": "address"
            },
            {
              "internalType": "uint256",
              "name": "amount",
              "type": "uint256"
            },
            {
              "internalType": "bool",
              "name": "isReleased",
              "type": "bool"
            },
            {
              "internalType": "bool",
              "name": "isDelivered",
              "type": "bool"
            },
            {
              "internalType": "bool",
              "name": "isRefunded",
              "type": "bool"
            }
          ],
          "internalType": "struct Duniverse.Purchase[]",
          "name": "",
          "type": "tuple[]"
        }
      ],
      "stateMutability": "view",
      "type": "function"
    },
    {
      "inputs": [
        {
          "internalType": "uint256",
          "name": "_purchaseId",
          "type": "uint256"
        }
      ],
      "name": "markDelivered",
      "outputs": [],
      "stateMutability": "nonpayable",
      "type": "function"
    },
    {
      "inputs": [],
      "name": "numProducts",
      "outputs": [
        {
          "internalType": "uint256",
          "name": "",
          "type": "uint256"
        }
      ],
      "stateMutability": "view",
      "type": "function"
    },
    {
      "inputs": [],
      "name": "numPurchases",
      "outputs": [
        {
          "internalType": "uint256",
          "name": "",
          "type": "uint256"
        }
      ],
      "stateMutability": "view",
      "type": "function"
    },
    {
      "inputs": [],
      "name": "owner",
      "outputs": [
        {
          "internalType": "address",
          "name": "",
          "type": "address"
        }
      ],
      "stateMutability": "view",
      "type": "function"
    },
    {
      "inputs": [
        {
          "internalType": "uint256",
          "name": "",
          "type": "uint256"
        }
      ],
      "name": "planets",
      "outputs": [
        {
          "internalType": "uint256",
          "name": "planetId",
          "type": "uint256"
        },
        {
          "internalType": "string",
          "name": "planetName",
          "type": "string"
        },
        {
          "internalType": "string",
          "name": "planetDescription",
          "type": "string"
        },
        {
          "internalType": "address",
          "name": "ruler",
          "type": "address"
        }
      ],
      "stateMutability": "view",
      "type": "function"
    },
    {
      "inputs": [
        {
          "internalType": "uint256",
          "name": "",
          "type": "uint256"
        }
      ],
      "name": "products",
      "outputs": [
        {
          "internalType": "string",
          "name": "productName",
          "type": "string"
        },
        {
          "internalType": "uint256",
          "name": "productId",
          "type": "uint256"
        },
        {
          "internalType": "uint256",
          "name": "planetId",
          "type": "uint256"
        },
        {
          "internalType": "address",
          "name": "seller",
          "type": "address"
        },
        {
          "internalType": "uint256",
          "name": "quantity",
          "type": "uint256"
        },
        {
          "internalType": "uint256",
          "name": "price",
          "type": "uint256"
        },
        {
          "internalType": "uint256",
          "name": "sales",
          "type": "uint256"
        }
      ],
      "stateMutability": "view",
      "type": "function"
    },
    {
      "inputs": [
        {
          "internalType": "uint256",
          "name": "_productId",
          "type": "uint256"
        },
        {
          "internalType": "uint256",
          "name": "_quantity",
          "type": "uint256"
        }
      ],
      "name": "purchaseProduct",
      "outputs": [],
      "stateMutability": "payable",
      "type": "function"
    },
    {
      "inputs": [
        {
          "internalType": "uint256",
          "name": "",
          "type": "uint256"
        }
      ],
      "name": "purchases",
      "outputs": [
        {
          "internalType": "uint256",
          "name": "purchaseId",
          "type": "uint256"
        },
        {
          "internalType": "uint256",
          "name": "productId",
          "type": "uint256"
        },
        {
          "internalType": "address",
          "name": "buyer",
          "type": "address"
        },
        {
          "internalType": "address",
          "name": "seller",
          "type": "address"
        },
        {
          "internalType": "uint256",
          "name": "amount",
          "type": "uint256"
        },
        {
          "internalType": "bool",
          "name": "isReleased",
          "type": "bool"
        },
        {
          "internalType": "bool",
          "name": "isDelivered",
          "type": "bool"
        },
        {
          "internalType": "bool",
          "name": "isRefunded",
          "type": "bool"
        }
      ],
      "stateMutability": "view",
      "type": "function"
    },
    {
      "inputs": [
        {
          "internalType": "uint256",
          "name": "_purchaseId",
          "type": "uint256"
        }
      ],
      "name": "raiseAppeal",
      "outputs": [],
      "stateMutability": "nonpayable",
      "type": "function"
    },
    {
      "inputs": [
        {
          "internalType": "uint256",
          "name": "_purchaseId",
          "type": "uint256"
        }
      ],
      "name": "refund",
      "outputs": [],
      "stateMutability": "nonpayable",
      "type": "function"
    },
    {
      "inputs": [
        {
          "internalType": "uint256",
          "name": "_purchaseId",
          "type": "uint256"
        }
      ],
      "name": "release",
      "outputs": [],
      "stateMutability": "nonpayable",
      "type": "function"
    },
    {
      "inputs": [
        {
          "internalType": "uint256",
          "name": "_purchaseId",
          "type": "uint256"
        }
      ],
      "name": "releaseFor",
      "outputs": [],
      "stateMutability": "nonpayable",
      "type": "function"
    },
    {
      "inputs": [
        {
          "internalType": "uint256",
          "name": "_planetId",
          "type": "uint256"
        }
      ],
      "name": "requestApproval",
      "outputs": [],
      "stateMutability": "nonpayable",
      "type": "function"
    }
  ],
  "transactionHash": "0x07657262f7d4db335a3b153962810e6266a4ae9b55277ac566334357e5eddd51",
  "args": [
    "0xe8fB78FD7C76A3e2f500d4302E8a75E6706804f8"
  ],
  "numDeployments": 1,
  "solcInputHash": "a1230b72b9e268bc2d0cf73856869cca",
  "bytecode": "0x60806040523480156200001157600080fd5b506040516200283e3803806200283e833981016040819052620000349162000068565b60008054336001600160a01b031991821617909155600180549091166001600160a01b03929092169190911790556200009a565b6000602082840312156200007b57600080fd5b81516001600160a01b03811681146200009357600080fd5b9392505050565b61279480620000aa6000396000f3fe60806040526004361061014b5760003560e01c8063802125f5116100b6578063acff86871161006f578063acff86871461048b578063bc323bbe146104cb578063bed55167146104eb578063d1d54c051461050b578063d29079bb1461052b578063eb826a5f1461054b57600080fd5b8063802125f51461031c5780638392fe311461033c5780638da5cb5b146103fd578063931e52ee14610435578063a044042614610462578063ac964f211461047557600080fd5b80634042f8b5116101085780634042f8b51461023c5780634d41cd621461025c5780635ec5d8561461027c5780636d148f841461029c578063738f74e1146102bc5780637acc0b20146102e957600080fd5b8063214bcce01461015057806326c1e75014610186578063278ecde1146101b65780632939359d146101d857806333bc844f146101fc57806337bdc99b1461021c575b600080fd5b34801561015c57600080fd5b5061017061016b3660046120f5565b61056b565b60405161017d9190612128565b60405180910390f35b34801561019257600080fd5b506101a66101a13660046121c9565b610708565b60405161017d9493929190612228565b3480156101c257600080fd5b506101d66101d13660046121c9565b61084a565b005b3480156101e457600080fd5b506101ee60085481565b60405190815260200161017d565b34801561020857600080fd5b506101d661021736600461226d565b610c82565b34801561022857600080fd5b506101d66102373660046121c9565b610f0b565b34801561024857600080fd5b506101d6610257366004612332565b6110b6565b34801561026857600080fd5b506101706102773660046120f5565b61117e565b34801561028857600080fd5b506101d661029736600461226d565b611307565b3480156102a857600080fd5b506101d66102b73660046121c9565b6113bb565b3480156102c857600080fd5b506101ee6102d736600461226d565b60066020526000908152604090205481565b3480156102f557600080fd5b506103096103043660046121c9565b61140a565b60405161017d979695949392919061239f565b34801561032857600080fd5b506101d66103373660046121c9565b6114d9565b34801561034857600080fd5b506103b06103573660046121c9565b60026020819052600091825260409091208054600182015492820154600383015460048401546005909401549294936001600160a01b0392831693929091169160ff808216916101008104821691620100009091041688565b6040805198895260208901979097526001600160a01b03958616968801969096529390921660608601526080850152151560a0840152151560c0830152151560e08201526101000161017d565b34801561040957600080fd5b5060005461041d906001600160a01b031681565b6040516001600160a01b03909116815260200161017d565b34801561044157600080fd5b506101ee61045036600461226d565b60056020526000908152604090205481565b6101d66104703660046123ec565b61188f565b34801561048157600080fd5b506101ee60095481565b34801561049757600080fd5b506104bb6104a63660046121c9565b60076020526000908152604090205460ff1681565b604051901515815260200161017d565b3480156104d757600080fd5b506101d66104e636600461240e565b611b6b565b3480156104f757600080fd5b506101706105063660046123ec565b611d0b565b34801561051757600080fd5b5060015461041d906001600160a01b031681565b34801561053757600080fd5b506101d66105463660046121c9565b611e7c565b34801561055757600080fd5b506101d66105663660046121c9565b611f61565b6060818311156105965760405162461bcd60e51b815260040161058d90612477565b60405180910390fd5b60006105a284846124b4565b6105ad9060016124c7565b905060008167ffffffffffffffff8111156105ca576105ca61228f565b60405190808252806020026020018201604052801561060357816020015b6105f0612095565b8152602001906001900390816105e85790505b5090506000855b8581116106fc576000818152600260205260409020600301546001600160a01b03808a169116036106ea576000818152600260208181526040928390208351610100808201865282548252600183015493820193909352928101546001600160a01b0390811694840194909452600381015490931660608301526004830154608083015260059092015460ff808216151560a08401529281048316151560c0830152620100009004909116151560e082015283518490849081106106d0576106d06124da565b602002602001018190525081806106e6906124f0565b9250505b806106f4816124f0565b91505061060a565b50909695505050505050565b6004602052600090815260409020805460018201805491929161072a90612509565b80601f016020809104026020016040519081016040528092919081815260200182805461075690612509565b80156107a35780601f10610778576101008083540402835291602001916107a3565b820191906000526020600020905b81548152906001019060200180831161078657829003601f168201915b5050505050908060020180546107b890612509565b80601f01602080910402602001604051908101604052809291908181526020018280546107e490612509565b80156108315780601f1061080657610100808354040283529160200191610831565b820191906000526020600020905b81548152906001019060200180831161081457829003601f168201915b505050600390930154919250506001600160a01b031684565b60008181526002602081815260408084208151610100808201845282548252600180840154838701819052848801546001600160a01b0390811685880152600380870154909116606086015260048087015460808088019190915260059097015460ff808216151560a08901529581048616151560c0880152620100009004909416151560e0860152818a528752858920909701548089529186528488208551948501909552845484528401805489989397969295939493928401919061091090612509565b80601f016020809104026020016040519081016040528092919081815260200182805461093c90612509565b80156109895780601f1061095e57610100808354040283529160200191610989565b820191906000526020600020905b81548152906001019060200180831161096c57829003601f168201915b505050505081526020016002820180546109a290612509565b80601f01602080910402602001604051908101604052809291908181526020018280546109ce90612509565b8015610a1b5780601f106109f057610100808354040283529160200191610a1b565b820191906000526020600020905b8154815290600101906020018083116109fe57829003601f168201915b5050509183525050600391909101546001600160a01b039081166020909201919091526060820151919250163314610a655760405162461bcd60e51b815260040161058d90612543565b60008681526007602052604090205460ff16610acf5760405162461bcd60e51b815260206004820152602360248201527f41707065616c206d75737420626520726169736564206265666f7265207265666044820152621d5b9960ea1b606482015260840161058d565b60008681526002602052604090206005015460ff1615610b015760405162461bcd60e51b815260040161058d9061258c565b60008681526002602052604090206005015462010000900460ff1615610b695760405162461bcd60e51b815260206004820152601960248201527f507572636861736520616c726561647920726566756e64656400000000000000604482015260640161058d565b60015460008781526002602081905260409182902090810154600491820154925163a9059cbb60e01b81526001600160a01b0391821692810192909252602482019290925291169063a9059cbb906044016020604051808303816000875af1158015610bd9573d6000803e3d6000fd5b505050506040513d601f19601f82011682018060405250810190610bfd91906125c3565b50600086815260026020908152604091829020600381015460049091015483518a8152928301526001600160a01b03169133917f82c4addd7df9bb5b801dcdeb0a67eb8bda3d9e213af78965d584b0be8cb63660910160405180910390a350505060009283525050600260205260409020600501805462ff0000191662010000179055565b6001600160a01b0380821660009081526006602090815260408083205480845260028084528285208351610100808201865282548252600180840154838901819052848601548b1684890152600380860154909b16606085015260048086015460808087019190915260059096015460ff808216151560a08801529481048516151560c0870152620100009004909316151560e0850152808a52998852868920909401548089529087528588208651938401909652855483529285018054949891979196939591949293919291840191610d5b90612509565b80601f0160208091040260200160405190810160405280929190818152602001828054610d8790612509565b8015610dd45780601f10610da957610100808354040283529160200191610dd4565b820191906000526020600020905b815481529060010190602001808311610db757829003601f168201915b50505050508152602001600282018054610ded90612509565b80601f0160208091040260200160405190810160405280929190818152602001828054610e1990612509565b8015610e665780601f10610e3b57610100808354040283529160200191610e66565b820191906000526020600020905b815481529060010190602001808311610e4957829003601f168201915b5050509183525050600391909101546001600160a01b039081166020909201919091526060820151919250163314610eb05760405162461bcd60e51b815260040161058d90612543565b6001600160a01b03861660008181526006602090815260408083208054939055518281529192917f6db674a69e9ad4a55205180b47485cdc0476c8986d824e9699b2e271382d0c46910160405180910390a250505050505050565b6000818152600260208190526040909120015481906001600160a01b03163314610f895760405162461bcd60e51b815260206004820152602960248201527f4f6e6c79207468652042757965722063616e20706572666f726d20746869732060448201526837b832b930ba34b7b760b91b606482015260840161058d565b60008281526002602052604090206005015460ff1615610fbb5760405162461bcd60e51b815260040161058d9061258c565b600154600083815260026020526040908190206003810154600491820154925163a9059cbb60e01b81526001600160a01b0391821692810192909252602482019290925291169063a9059cbb906044016020604051808303816000875af115801561102a573d6000803e3d6000fd5b505050506040513d601f19601f8201168201806040525081019061104e91906125c3565b506000828152600260205260409081902060058101805460ff1916600117905560040154905133917f2c57dec1db0095a6b800c2698d5bbceef2c180c6ac43429769a719658983f677916110aa91868252602082015260400190565b60405180910390a25050565b6040805160808101825284815260208082018581528284018590523360608401526000878152600490925292902081518155915190919060018201906110fc9082612634565b50604082015160028201906111119082612634565b5060609190910151600390910180546001600160a01b0319166001600160a01b03909216919091179055604051339084907f8da1d1310292fe3fc539b9bdc9f9707a8c8ab7a87386069342d1a0cd167a4c2c9061117190869086906126f4565b60405180910390a3505050565b6060818311156111a05760405162461bcd60e51b815260040161058d90612477565b60006111ac84846124b4565b6111b79060016124c7565b905060008167ffffffffffffffff8111156111d4576111d461228f565b60405190808252806020026020018201604052801561120d57816020015b6111fa612095565b8152602001906001900390816111f25790505b5090506000855b8581116106fc57600081815260026020819052604090912001546001600160a01b03808a169116036112f5576000818152600260208181526040928390208351610100808201865282548252600183015493820193909352928101546001600160a01b0390811694840194909452600381015490931660608301526004830154608083015260059092015460ff808216151560a08401529281048316151560c0830152620100009004909116151560e082015283518490849081106112db576112db6124da565b602002602001018190525081806112f1906124f0565b9250505b806112ff816124f0565b915050611214565b6001600160a01b0381811660009081526006602090815260408083205480845260049092529091206003015490911633146113545760405162461bcd60e51b815260040161058d90612543565b6001600160a01b03821660008181526006602081815260408084208054600584528286208190559383529390935591518181529092917f8858b15a4f1540b0df00082304b78a2330d9ed2951d395bbccb90c257e298ab491015b60405180910390a2505050565b3360008181526006602052604090819020839055517f476871eccc7ab517c1c23acfd3954e8ed6fe523bbe0b0ab9a9611d3324ec08ee906113ff9084815260200190565b60405180910390a250565b60036020526000908152604090208054819061142590612509565b80601f016020809104026020016040519081016040528092919081815260200182805461145190612509565b801561149e5780601f106114735761010080835404028352916020019161149e565b820191906000526020600020905b81548152906001019060200180831161148157829003601f168201915b50505060018401546002850154600386015460048701546005880154600690980154969793969295506001600160a01b039091169350919087565b60008181526002602081815260408084208151610100808201845282548252600180840154838701819052848801546001600160a01b0390811685880152600380870154909116606086015260048087015460808088019190915260059097015460ff808216151560a08901529581048616151560c0880152620100009004909416151560e0860152818a528752858920909701548089529186528488208551948501909552845484528401805489989397969295939493928401919061159f90612509565b80601f01602080910402602001604051908101604052809291908181526020018280546115cb90612509565b80156116185780601f106115ed57610100808354040283529160200191611618565b820191906000526020600020905b8154815290600101906020018083116115fb57829003601f168201915b5050505050815260200160028201805461163190612509565b80601f016020809104026020016040519081016040528092919081815260200182805461165d90612509565b80156116aa5780601f1061167f576101008083540402835291602001916116aa565b820191906000526020600020905b81548152906001019060200180831161168d57829003601f168201915b5050509183525050600391909101546001600160a01b0390811660209092019190915260608201519192501633146116f45760405162461bcd60e51b815260040161058d90612543565b60008681526007602052604090205460ff1661175e5760405162461bcd60e51b8152602060048201526024808201527f41707065616c206d75737420626520726169736564206265666f72652072656c6044820152636561736560e01b606482015260840161058d565b60008681526002602052604090206005015460ff16156117905760405162461bcd60e51b815260040161058d9061258c565b600154600087815260026020526040908190206003810154600491820154925163a9059cbb60e01b81526001600160a01b0391821692810192909252602482019290925291169063a9059cbb906044016020604051808303816000875af11580156117ff573d6000803e3d6000fd5b505050506040513d601f19601f8201168201806040525081019061182391906125c3565b506000868152600260205260409081902060058101805460ff1916600117905560040154905133917f2c57dec1db0095a6b800c2698d5bbceef2c180c6ac43429769a719658983f6779161187f918a8252602082015260400190565b60405180910390a2505050505050565b6000828152600360205260409020600401548111156119095760405162461bcd60e51b815260206004820152603060248201527f496e73756666696369656e7420696e76656e746f7279206f722070726f64756360448201526f1d08191bd95cc81b9bdd08195e1a5cdd60821b606482015260840161058d565b600082815260036020526040812060050154611926908390612722565b6001546040516323b872dd60e01b8152336004820152306024820152604481018390529192506001600160a01b0316906323b872dd906064016020604051808303816000875af115801561197e573d6000803e3d6000fd5b505050506040513d601f19601f820116820180604052508101906119a291906125c3565b50600880549060006119b3836124f0565b9091555050600854604080519182526020820183905233917f0f4a9c70987615d71a1085cae3c6fb0c2855f81a5ec62cb7ee3136d5407e357c910160405180910390a260008381526003602052604081206004018054849290611a179084906124b4565b909155505060008381526003602052604081206006018054849290611a3d9084906124c7565b90915550506040805161010080820183526008805480845260208085018981523386880181815260008c815260038086528a82208101546001600160a01b0390811660608c0190815260808c018e815260a08d0185815260c08e0186815260e08f018781529b875260029a8b9052958f90209d518e55975160018e01559451978c0180549883166001600160a01b0319998a1617905551918b018054929091169190961617909455516004880155905160059096018054925193511515620100000262ff00001994151590960261ff00199715159790971661ffff199093169290921795909517919091169290921790915554915190917f0f4a9c70987615d71a1085cae3c6fb0c2855f81a5ec62cb7ee3136d5407e357c916113ae91908690918252602082015260400190565b3360009081526005602052604090205484908114611bda5760405162461bcd60e51b815260206004820152602660248201527f4f6e6c7920617070726f7665642073656c6c6572732063616e206164642070726044820152656f647563747360d01b606482015260840161058d565b6000600960008154611beb906124f0565b91905081905590506040518060e00160405280888152602001828152602001878152602001866001600160a01b031681526020018581526020018481526020016000815250600360008381526020019081526020016000206000820151816000019081611c589190612634565b50602082015181600101556040820151816002015560608201518160030160006101000a8154816001600160a01b0302191690836001600160a01b031602179055506080820151816004015560a0820151816005015560c08201518160060155905050846001600160a01b031686827f4b42422c0df50ead31d3e5c29926db929c56a78c814a337ff12ddc76440b3a5a8a8888604051611cfa93929190612739565b60405180910390a450505050505050565b606081831115611d2d5760405162461bcd60e51b815260040161058d90612477565b6000611d3984846124b4565b611d449060016124c7565b905060008167ffffffffffffffff811115611d6157611d6161228f565b604051908082528060200260200182016040528015611d9a57816020015b611d87612095565b815260200190600190039081611d7f5790505b5090506000855b858111611e6f576000818152600260208181526040928390208351610100808201865282548252600183015493820193909352928101546001600160a01b0390811694840194909452600381015490931660608301526004830154608083015260059092015460ff808216151560a08401529281048316151560c0830152620100009004909116151560e08201528351849084908110611e4357611e436124da565b60200260200101819052508180611e59906124f0565b9250508080611e67906124f0565b915050611da1565b5090925050505b92915050565b600081815260026020819052604090912001546001600160a01b0316331480611ebe57506000818152600260205260409020600301546001600160a01b031633145b611f1b5760405162461bcd60e51b815260206004820152602860248201527f4f6e6c79206275796572206f722073656c6c65722063616e20726169736520616044820152671b88185c1c19585b60c21b606482015260840161058d565b600081815260076020526040808220805460ff1916600117905551339183917f84fe926178a9a001285f5126878cb13cc2d8c091b23b313f76a0875d230b627c9190a350565b60008181526002602052604090206003015481906001600160a01b03163314611fdf5760405162461bcd60e51b815260206004820152602a60248201527f4f6e6c79207468652053656c6c65722063616e20706572666f726d20746869736044820152691037b832b930ba34b7b760b11b606482015260840161058d565b600082815260026020526040902060050154610100900460ff16156120385760405162461bcd60e51b815260206004820152600f60248201526e105b1c9958591e481cda1a5c1c1959608a1b604482015260640161058d565b6000828152600260205260409081902060058101805461ff00191661010017905560040154905133917f47357acf7cd02d7a69ba4d681fead1ba8015768d36e56cdd2340d1cc0a148d64916110aa91868252602082015260400190565b6040805161010081018252600080825260208201819052918101829052606081018290526080810182905260a0810182905260c0810182905260e081019190915290565b80356001600160a01b03811681146120f057600080fd5b919050565b60008060006060848603121561210a57600080fd5b612113846120d9565b95602085013595506040909401359392505050565b602080825282518282018190526000919060409081850190868401855b828110156121bc578151805185528681015187860152858101516001600160a01b0390811687870152606080830151909116908601526080808201519086015260a08082015115159086015260c08082015115159086015260e0908101511515908501526101009093019290850190600101612145565b5091979650505050505050565b6000602082840312156121db57600080fd5b5035919050565b6000815180845260005b81811015612208576020818501810151868301820152016121ec565b506000602082860101526020601f19601f83011685010191505092915050565b84815260806020820152600061224160808301866121e2565b828103604084015261225381866121e2565b91505060018060a01b038316606083015295945050505050565b60006020828403121561227f57600080fd5b612288826120d9565b9392505050565b634e487b7160e01b600052604160045260246000fd5b600082601f8301126122b657600080fd5b813567ffffffffffffffff808211156122d1576122d161228f565b604051601f8301601f19908116603f011681019082821181831017156122f9576122f961228f565b8160405283815286602085880101111561231257600080fd5b836020870160208301376000602085830101528094505050505092915050565b60008060006060848603121561234757600080fd5b83359250602084013567ffffffffffffffff8082111561236657600080fd5b612372878388016122a5565b9350604086013591508082111561238857600080fd5b50612395868287016122a5565b9150509250925092565b60e0815260006123b260e083018a6121e2565b60208301989098525060408101959095526001600160a01b03939093166060850152608084019190915260a083015260c090910152919050565b600080604083850312156123ff57600080fd5b50508035926020909101359150565b600080600080600060a0868803121561242657600080fd5b853567ffffffffffffffff81111561243d57600080fd5b612449888289016122a5565b9550506020860135935061245f604087016120d9565b94979396509394606081013594506080013592915050565b6020808252600d908201526c496e76616c69642072616e676560981b604082015260600190565b634e487b7160e01b600052601160045260246000fd5b81810381811115611e7657611e7661249e565b80820180821115611e7657611e7661249e565b634e487b7160e01b600052603260045260246000fd5b6000600182016125025761250261249e565b5060010190565b600181811c9082168061251d57607f821691505b60208210810361253d57634e487b7160e01b600052602260045260246000fd5b50919050565b60208082526029908201527f4f6e6c79207468652052756c65722063616e20706572666f726d20746869732060408201526837b832b930ba34b7b760b91b606082015260800190565b6020808252601a908201527f46756e64732061726520616c72656164792072656c6561736564000000000000604082015260600190565b6000602082840312156125d557600080fd5b8151801515811461228857600080fd5b601f82111561262f57600081815260208120601f850160051c8101602086101561260c5750805b601f850160051c820191505b8181101561262b57828155600101612618565b5050505b505050565b815167ffffffffffffffff81111561264e5761264e61228f565b6126628161265c8454612509565b846125e5565b602080601f831160018114612697576000841561267f5750858301515b600019600386901b1c1916600185901b17855561262b565b600085815260208120601f198616915b828110156126c6578886015182559484019460019091019084016126a7565b50858210156126e45787850151600019600388901b60f8161c191681555b5050505050600190811b01905550565b60408152600061270760408301856121e2565b828103602084015261271981856121e2565b95945050505050565b8082028115828204841417611e7657611e7661249e565b60608152600061274c60608301866121e2565b6020830194909452506040015291905056fea2646970667358221220700c92f207dc5008836bbdd03011feb30252299e9d66a298feefc36c201d88b264736f6c63430008110033",
  "devdoc": {
    "kind": "dev",
    "methods": {},
    "version": 1
  },
  "userdoc": {
    "kind": "user",
    "methods": {},
    "version": 1
  },
  "storageLayout": {
    "storage": [
      {
        "astId": 2667,
        "contract": "contracts/Duniverse.sol:Duniverse",
        "label": "owner",
        "offset": 0,
        "slot": "0",
        "type": "t_address"
      },
      {
        "astId": 2669,
        "contract": "contracts/Duniverse.sol:Duniverse",
        "label": "MOCKUSDT_ADDRESS",
        "offset": 0,
        "slot": "1",
        "type": "t_address"
      },
      {
        "astId": 2674,
        "contract": "contracts/Duniverse.sol:Duniverse",
        "label": "purchases",
        "offset": 0,
        "slot": "2",
        "type": "t_mapping(t_uint256,t_struct(Purchase)2726_storage)"
      },
      {
        "astId": 2679,
        "contract": "contracts/Duniverse.sol:Duniverse",
        "label": "products",
        "offset": 0,
        "slot": "3",
        "type": "t_mapping(t_uint256,t_struct(Product)2741_storage)"
      },
      {
        "astId": 2684,
        "contract": "contracts/Duniverse.sol:Duniverse",
        "label": "planets",
        "offset": 0,
        "slot": "4",
        "type": "t_mapping(t_uint256,t_struct(Planet)2709_storage)"
      },
      {
        "astId": 2688,
        "contract": "contracts/Duniverse.sol:Duniverse",
        "label": "approvedSellers",
        "offset": 0,
        "slot": "5",
        "type": "t_mapping(t_address,t_uint256)"
      },
      {
        "astId": 2692,
        "contract": "contracts/Duniverse.sol:Duniverse",
        "label": "approvalRequests",
        "offset": 0,
        "slot": "6",
        "type": "t_mapping(t_address,t_uint256)"
      },
      {
        "astId": 2696,
        "contract": "contracts/Duniverse.sol:Duniverse",
        "label": "appeals",
        "offset": 0,
        "slot": "7",
        "type": "t_mapping(t_uint256,t_bool)"
      },
      {
        "astId": 2698,
        "contract": "contracts/Duniverse.sol:Duniverse",
        "label": "numPurchases",
        "offset": 0,
        "slot": "8",
        "type": "t_uint256"
      },
      {
        "astId": 2700,
        "contract": "contracts/Duniverse.sol:Duniverse",
        "label": "numProducts",
        "offset": 0,
        "slot": "9",
        "type": "t_uint256"
      }
    ],
    "types": {
      "t_address": {
        "encoding": "inplace",
        "label": "address",
        "numberOfBytes": "20"
      },
      "t_bool": {
        "encoding": "inplace",
        "label": "bool",
        "numberOfBytes": "1"
      },
      "t_mapping(t_address,t_uint256)": {
        "encoding": "mapping",
        "key": "t_address",
        "label": "mapping(address => uint256)",
        "numberOfBytes": "32",
        "value": "t_uint256"
      },
      "t_mapping(t_uint256,t_bool)": {
        "encoding": "mapping",
        "key": "t_uint256",
        "label": "mapping(uint256 => bool)",
        "numberOfBytes": "32",
        "value": "t_bool"
      },
      "t_mapping(t_uint256,t_struct(Planet)2709_storage)": {
        "encoding": "mapping",
        "key": "t_uint256",
        "label": "mapping(uint256 => struct Duniverse.Planet)",
        "numberOfBytes": "32",
        "value": "t_struct(Planet)2709_storage"
      },
      "t_mapping(t_uint256,t_struct(Product)2741_storage)": {
        "encoding": "mapping",
        "key": "t_uint256",
        "label": "mapping(uint256 => struct Duniverse.Product)",
        "numberOfBytes": "32",
        "value": "t_struct(Product)2741_storage"
      },
      "t_mapping(t_uint256,t_struct(Purchase)2726_storage)": {
        "encoding": "mapping",
        "key": "t_uint256",
        "label": "mapping(uint256 => struct Duniverse.Purchase)",
        "numberOfBytes": "32",
        "value": "t_struct(Purchase)2726_storage"
      },
      "t_string_storage": {
        "encoding": "bytes",
        "label": "string",
        "numberOfBytes": "32"
      },
      "t_struct(Planet)2709_storage": {
        "encoding": "inplace",
        "label": "struct Duniverse.Planet",
        "members": [
          {
            "astId": 2702,
            "contract": "contracts/Duniverse.sol:Duniverse",
            "label": "planetId",
            "offset": 0,
            "slot": "0",
            "type": "t_uint256"
          },
          {
            "astId": 2704,
            "contract": "contracts/Duniverse.sol:Duniverse",
            "label": "planetName",
            "offset": 0,
            "slot": "1",
            "type": "t_string_storage"
          },
          {
            "astId": 2706,
            "contract": "contracts/Duniverse.sol:Duniverse",
            "label": "planetDescription",
            "offset": 0,
            "slot": "2",
            "type": "t_string_storage"
          },
          {
            "astId": 2708,
            "contract": "contracts/Duniverse.sol:Duniverse",
            "label": "ruler",
            "offset": 0,
            "slot": "3",
            "type": "t_address"
          }
        ],
        "numberOfBytes": "128"
      },
      "t_struct(Product)2741_storage": {
        "encoding": "inplace",
        "label": "struct Duniverse.Product",
        "members": [
          {
            "astId": 2728,
            "contract": "contracts/Duniverse.sol:Duniverse",
            "label": "productName",
            "offset": 0,
            "slot": "0",
            "type": "t_string_storage"
          },
          {
            "astId": 2730,
            "contract": "contracts/Duniverse.sol:Duniverse",
            "label": "productId",
            "offset": 0,
            "slot": "1",
            "type": "t_uint256"
          },
          {
            "astId": 2732,
            "contract": "contracts/Duniverse.sol:Duniverse",
            "label": "planetId",
            "offset": 0,
            "slot": "2",
            "type": "t_uint256"
          },
          {
            "astId": 2734,
            "contract": "contracts/Duniverse.sol:Duniverse",
            "label": "seller",
            "offset": 0,
            "slot": "3",
            "type": "t_address"
          },
          {
            "astId": 2736,
            "contract": "contracts/Duniverse.sol:Duniverse",
            "label": "quantity",
            "offset": 0,
            "slot": "4",
            "type": "t_uint256"
          },
          {
            "astId": 2738,
            "contract": "contracts/Duniverse.sol:Duniverse",
            "label": "price",
            "offset": 0,
            "slot": "5",
            "type": "t_uint256"
          },
          {
            "astId": 2740,
            "contract": "contracts/Duniverse.sol:Duniverse",
            "label": "sales",
            "offset": 0,
            "slot": "6",
            "type": "t_uint256"
          }
        ],
        "numberOfBytes": "224"
      },
      "t_struct(Purchase)2726_storage": {
        "encoding": "inplace",
        "label": "struct Duniverse.Purchase",
        "members": [
          {
            "astId": 2711,
            "contract": "contracts/Duniverse.sol:Duniverse",
            "label": "purchaseId",
            "offset": 0,
            "slot": "0",
            "type": "t_uint256"
          },
          {
            "astId": 2713,
            "contract": "contracts/Duniverse.sol:Duniverse",
            "label": "productId",
            "offset": 0,
            "slot": "1",
            "type": "t_uint256"
          },
          {
            "astId": 2715,
            "contract": "contracts/Duniverse.sol:Duniverse",
            "label": "buyer",
            "offset": 0,
            "slot": "2",
            "type": "t_address"
          },
          {
            "astId": 2717,
            "contract": "contracts/Duniverse.sol:Duniverse",
            "label": "seller",
            "offset": 0,
            "slot": "3",
            "type": "t_address"
          },
          {
            "astId": 2719,
            "contract": "contracts/Duniverse.sol:Duniverse",
            "label": "amount",
            "offset": 0,
            "slot": "4",
            "type": "t_uint256"
          },
          {
            "astId": 2721,
            "contract": "contracts/Duniverse.sol:Duniverse",
            "label": "isReleased",
            "offset": 0,
            "slot": "5",
            "type": "t_bool"
          },
          {
            "astId": 2723,
            "contract": "contracts/Duniverse.sol:Duniverse",
            "label": "isDelivered",
            "offset": 1,
            "slot": "5",
            "type": "t_bool"
          },
          {
            "astId": 2725,
            "contract": "contracts/Duniverse.sol:Duniverse",
            "label": "isRefunded",
            "offset": 2,
            "slot": "5",
            "type": "t_bool"
          }
        ],
        "numberOfBytes": "192"
      },
      "t_uint256": {
        "encoding": "inplace",
        "label": "uint256",
        "numberOfBytes": "32"
      }
    }
  }
}