{
  "address": "0x420CD61BeeD23ef827df55edCFc1095406f4a148",
  "abi": [
    {
      "inputs": [
        {
          "internalType": "address",
          "name": "_MOCKUSDT_ADDRESS",
          "type": "address"
        }
      ],
      "stateMutability": "nonpayable",
      "type": "constructor"
    },
    {
      "anonymous": false,
      "inputs": [
        {
          "indexed": true,
          "internalType": "uint256",
          "name": "purchaseId",
          "type": "uint256"
        },
        {
          "indexed": true,
          "internalType": "address",
          "name": "by",
          "type": "address"
        }
      ],
      "name": "AppealRaised",
      "type": "event"
    },
    {
      "anonymous": false,
      "inputs": [
        {
          "indexed": true,
          "internalType": "address",
          "name": "seller",
          "type": "address"
        },
        {
          "indexed": true,
          "internalType": "uint256",
          "name": "planetId",
          "type": "uint256"
        }
      ],
      "name": "ApprovalDeclined",
      "type": "event"
    },
    {
      "anonymous": false,
      "inputs": [
        {
          "indexed": true,
          "internalType": "address",
          "name": "seller",
          "type": "address"
        },
        {
          "indexed": true,
          "internalType": "uint256",
          "name": "planetId",
          "type": "uint256"
        }
      ],
      "name": "ApprovalGranted",
      "type": "event"
    },
    {
      "anonymous": false,
      "inputs": [
        {
          "indexed": true,
          "internalType": "address",
          "name": "seller",
          "type": "address"
        },
        {
          "indexed": true,
          "internalType": "uint256",
          "name": "planetId",
          "type": "uint256"
        }
      ],
      "name": "ApprovalRequested",
      "type": "event"
    },
    {
      "anonymous": false,
      "inputs": [
        {
          "indexed": true,
          "internalType": "address",
          "name": "buyer",
          "type": "address"
        },
        {
          "indexed": true,
          "internalType": "uint256",
          "name": "purchaseId",
          "type": "uint256"
        },
        {
          "indexed": false,
          "internalType": "uint256",
          "name": "totalAmount",
          "type": "uint256"
        }
      ],
      "name": "Delivered",
      "type": "event"
    },
    {
      "anonymous": false,
      "inputs": [
        {
          "indexed": true,
          "internalType": "uint256",
          "name": "planetId",
          "type": "uint256"
        },
        {
          "indexed": false,
          "internalType": "string",
          "name": "planetName",
          "type": "string"
        },
        {
          "indexed": false,
          "internalType": "string",
          "name": "planetImage",
          "type": "string"
        },
        {
          "indexed": false,
          "internalType": "string",
          "name": "planetDescription",
          "type": "string"
        },
        {
          "indexed": true,
          "internalType": "address",
          "name": "ruler",
          "type": "address"
        }
      ],
      "name": "PlanetCreated",
      "type": "event"
    },
    {
      "anonymous": false,
      "inputs": [
        {
          "indexed": true,
          "internalType": "uint256",
          "name": "productId",
          "type": "uint256"
        },
        {
          "indexed": true,
          "internalType": "uint256",
          "name": "planetId",
          "type": "uint256"
        },
        {
          "indexed": true,
          "internalType": "address",
          "name": "seller",
          "type": "address"
        },
        {
          "indexed": false,
          "internalType": "string",
          "name": "productImage",
          "type": "string"
        },
        {
          "indexed": false,
          "internalType": "string",
          "name": "name",
          "type": "string"
        },
        {
          "indexed": false,
          "internalType": "uint256",
          "name": "quantity",
          "type": "uint256"
        },
        {
          "indexed": false,
          "internalType": "uint256",
          "name": "price",
          "type": "uint256"
        }
      ],
      "name": "ProductAdded",
      "type": "event"
    },
    {
      "anonymous": false,
      "inputs": [
        {
          "indexed": true,
          "internalType": "address",
          "name": "buyer",
          "type": "address"
        },
        {
          "indexed": true,
          "internalType": "address",
          "name": "seller",
          "type": "address"
        },
        {
          "indexed": true,
          "internalType": "uint256",
          "name": "purchaseId",
          "type": "uint256"
        },
        {
          "indexed": false,
          "internalType": "uint256",
          "name": "totalAmount",
          "type": "uint256"
        }
      ],
      "name": "Refund",
      "type": "event"
    },
    {
      "anonymous": false,
      "inputs": [
        {
          "indexed": true,
          "internalType": "address",
          "name": "buyer",
          "type": "address"
        },
        {
          "indexed": true,
          "internalType": "uint256",
          "name": "purchaseId",
          "type": "uint256"
        },
        {
          "indexed": false,
          "internalType": "uint256",
          "name": "totalAmount",
          "type": "uint256"
        }
      ],
      "name": "Release",
      "type": "event"
    },
    {
      "anonymous": false,
      "inputs": [
        {
          "indexed": true,
          "internalType": "uint256",
          "name": "purchaseId",
          "type": "uint256"
        },
        {
          "indexed": false,
          "internalType": "uint256",
          "name": "productId",
          "type": "uint256"
        },
        {
          "indexed": true,
          "internalType": "address",
          "name": "buyer",
          "type": "address"
        },
        {
          "indexed": true,
          "internalType": "address",
          "name": "seller",
          "type": "address"
        },
        {
          "indexed": false,
          "internalType": "uint256",
          "name": "totalAmount",
          "type": "uint256"
        }
      ],
      "name": "Sale",
      "type": "event"
    },
    {
      "inputs": [],
      "name": "MOCKUSDT_ADDRESS",
      "outputs": [
        {
          "internalType": "address",
          "name": "",
          "type": "address"
        }
      ],
      "stateMutability": "view",
      "type": "function"
    },
    {
      "inputs": [
        {
          "internalType": "string",
          "name": "_productName",
          "type": "string"
        },
        {
          "internalType": "uint256",
          "name": "_planetId",
          "type": "uint256"
        },
        {
          "internalType": "string",
          "name": "_productImage",
          "type": "string"
        },
        {
          "internalType": "address",
          "name": "_seller",
          "type": "address"
        },
        {
          "internalType": "uint256",
          "name": "_quantity",
          "type": "uint256"
        },
        {
          "internalType": "uint256",
          "name": "_price",
          "type": "uint256"
        }
      ],
      "name": "addProduct",
      "outputs": [],
      "stateMutability": "nonpayable",
      "type": "function"
    },
    {
      "inputs": [
        {
          "internalType": "uint256",
          "name": "",
          "type": "uint256"
        }
      ],
      "name": "appeals",
      "outputs": [
        {
          "internalType": "bool",
          "name": "",
          "type": "bool"
        }
      ],
      "stateMutability": "view",
      "type": "function"
    },
    {
      "inputs": [
        {
          "internalType": "address",
          "name": "",
          "type": "address"
        }
      ],
      "name": "approvalRequests",
      "outputs": [
        {
          "internalType": "uint256",
          "name": "",
          "type": "uint256"
        }
      ],
      "stateMutability": "view",
      "type": "function"
    },
    {
      "inputs": [
        {
          "internalType": "address",
          "name": "_seller",
          "type": "address"
        }
      ],
      "name": "approveSeller",
      "outputs": [],
      "stateMutability": "nonpayable",
      "type": "function"
    },
    {
      "inputs": [
        {
          "internalType": "address",
          "name": "",
          "type": "address"
        }
      ],
      "name": "approvedSellers",
      "outputs": [
        {
          "internalType": "uint256",
          "name": "",
          "type": "uint256"
        }
      ],
      "stateMutability": "view",
      "type": "function"
    },
    {
      "inputs": [
        {
          "internalType": "string",
          "name": "_planetName",
          "type": "string"
        },
        {
          "internalType": "string",
          "name": "_planetImage",
          "type": "string"
        },
        {
          "internalType": "string",
          "name": "_planetDescription",
          "type": "string"
        }
      ],
      "name": "createPlanet",
      "outputs": [],
      "stateMutability": "nonpayable",
      "type": "function"
    },
    {
      "inputs": [
        {
          "internalType": "address",
          "name": "_seller",
          "type": "address"
        }
      ],
      "name": "declineSeller",
      "outputs": [],
      "stateMutability": "nonpayable",
      "type": "function"
    },
    {
      "inputs": [
        {
          "internalType": "address",
          "name": "buyer",
          "type": "address"
        },
        {
          "internalType": "uint256",
          "name": "start",
          "type": "uint256"
        },
        {
          "internalType": "uint256",
          "name": "end",
          "type": "uint256"
        }
      ],
      "name": "getBuyerPurchases",
      "outputs": [
        {
          "components": [
            {
              "internalType": "uint256",
              "name": "purchaseId",
              "type": "uint256"
            },
            {
              "internalType": "uint256",
              "name": "productId",
              "type": "uint256"
            },
            {
              "internalType": "address",
              "name": "buyer",
              "type": "address"
            },
            {
              "internalType": "address",
              "name": "seller",
              "type": "address"
            },
            {
              "internalType": "uint256",
              "name": "amount",
              "type": "uint256"
            },
            {
              "internalType": "bool",
              "name": "isReleased",
              "type": "bool"
            },
            {
              "internalType": "bool",
              "name": "isDelivered",
              "type": "bool"
            },
            {
              "internalType": "bool",
              "name": "isRefunded",
              "type": "bool"
            }
          ],
          "internalType": "struct Duniverse.Purchase[]",
          "name": "",
          "type": "tuple[]"
        }
      ],
      "stateMutability": "view",
      "type": "function"
    },
    {
      "inputs": [
        {
          "internalType": "uint256",
          "name": "start",
          "type": "uint256"
        },
        {
          "internalType": "uint256",
          "name": "end",
          "type": "uint256"
        }
      ],
      "name": "getPurchases",
      "outputs": [
        {
          "components": [
            {
              "internalType": "uint256",
              "name": "purchaseId",
              "type": "uint256"
            },
            {
              "internalType": "uint256",
              "name": "productId",
              "type": "uint256"
            },
            {
              "internalType": "address",
              "name": "buyer",
              "type": "address"
            },
            {
              "internalType": "address",
              "name": "seller",
              "type": "address"
            },
            {
              "internalType": "uint256",
              "name": "amount",
              "type": "uint256"
            },
            {
              "internalType": "bool",
              "name": "isReleased",
              "type": "bool"
            },
            {
              "internalType": "bool",
              "name": "isDelivered",
              "type": "bool"
            },
            {
              "internalType": "bool",
              "name": "isRefunded",
              "type": "bool"
            }
          ],
          "internalType": "struct Duniverse.Purchase[]",
          "name": "",
          "type": "tuple[]"
        }
      ],
      "stateMutability": "view",
      "type": "function"
    },
    {
      "inputs": [
        {
          "internalType": "address",
          "name": "seller",
          "type": "address"
        },
        {
          "internalType": "uint256",
          "name": "start",
          "type": "uint256"
        },
        {
          "internalType": "uint256",
          "name": "end",
          "type": "uint256"
        }
      ],
      "name": "getSellerPurchases",
      "outputs": [
        {
          "components": [
            {
              "internalType": "uint256",
              "name": "purchaseId",
              "type": "uint256"
            },
            {
              "internalType": "uint256",
              "name": "productId",
              "type": "uint256"
            },
            {
              "internalType": "address",
              "name": "buyer",
              "type": "address"
            },
            {
              "internalType": "address",
              "name": "seller",
              "type": "address"
            },
            {
              "internalType": "uint256",
              "name": "amount",
              "type": "uint256"
            },
            {
              "internalType": "bool",
              "name": "isReleased",
              "type": "bool"
            },
            {
              "internalType": "bool",
              "name": "isDelivered",
              "type": "bool"
            },
            {
              "internalType": "bool",
              "name": "isRefunded",
              "type": "bool"
            }
          ],
          "internalType": "struct Duniverse.Purchase[]",
          "name": "",
          "type": "tuple[]"
        }
      ],
      "stateMutability": "view",
      "type": "function"
    },
    {
      "inputs": [
        {
          "internalType": "uint256",
          "name": "_purchaseId",
          "type": "uint256"
        }
      ],
      "name": "markDelivered",
      "outputs": [],
      "stateMutability": "nonpayable",
      "type": "function"
    },
    {
      "inputs": [],
      "name": "numPlanets",
      "outputs": [
        {
          "internalType": "uint256",
          "name": "",
          "type": "uint256"
        }
      ],
      "stateMutability": "view",
      "type": "function"
    },
    {
      "inputs": [],
      "name": "numProducts",
      "outputs": [
        {
          "internalType": "uint256",
          "name": "",
          "type": "uint256"
        }
      ],
      "stateMutability": "view",
      "type": "function"
    },
    {
      "inputs": [],
      "name": "numPurchases",
      "outputs": [
        {
          "internalType": "uint256",
          "name": "",
          "type": "uint256"
        }
      ],
      "stateMutability": "view",
      "type": "function"
    },
    {
      "inputs": [],
      "name": "owner",
      "outputs": [
        {
          "internalType": "address",
          "name": "",
          "type": "address"
        }
      ],
      "stateMutability": "view",
      "type": "function"
    },
    {
      "inputs": [
        {
          "internalType": "uint256",
          "name": "",
          "type": "uint256"
        }
      ],
      "name": "planets",
      "outputs": [
        {
          "internalType": "uint256",
          "name": "planetId",
          "type": "uint256"
        },
        {
          "internalType": "string",
          "name": "planetName",
          "type": "string"
        },
        {
          "internalType": "string",
          "name": "planetDescription",
          "type": "string"
        },
        {
          "internalType": "address",
          "name": "ruler",
          "type": "address"
        }
      ],
      "stateMutability": "view",
      "type": "function"
    },
    {
      "inputs": [
        {
          "internalType": "uint256",
          "name": "",
          "type": "uint256"
        }
      ],
      "name": "products",
      "outputs": [
        {
          "internalType": "string",
          "name": "productName",
          "type": "string"
        },
        {
          "internalType": "uint256",
          "name": "productId",
          "type": "uint256"
        },
        {
          "internalType": "uint256",
          "name": "planetId",
          "type": "uint256"
        },
        {
          "internalType": "address",
          "name": "seller",
          "type": "address"
        },
        {
          "internalType": "uint256",
          "name": "quantity",
          "type": "uint256"
        },
        {
          "internalType": "uint256",
          "name": "price",
          "type": "uint256"
        },
        {
          "internalType": "uint256",
          "name": "sales",
          "type": "uint256"
        }
      ],
      "stateMutability": "view",
      "type": "function"
    },
    {
      "inputs": [
        {
          "internalType": "uint256",
          "name": "_productId",
          "type": "uint256"
        },
        {
          "internalType": "uint256",
          "name": "_quantity",
          "type": "uint256"
        }
      ],
      "name": "purchaseProduct",
      "outputs": [],
      "stateMutability": "payable",
      "type": "function"
    },
    {
      "inputs": [
        {
          "internalType": "uint256",
          "name": "",
          "type": "uint256"
        }
      ],
      "name": "purchases",
      "outputs": [
        {
          "internalType": "uint256",
          "name": "purchaseId",
          "type": "uint256"
        },
        {
          "internalType": "uint256",
          "name": "productId",
          "type": "uint256"
        },
        {
          "internalType": "address",
          "name": "buyer",
          "type": "address"
        },
        {
          "internalType": "address",
          "name": "seller",
          "type": "address"
        },
        {
          "internalType": "uint256",
          "name": "amount",
          "type": "uint256"
        },
        {
          "internalType": "bool",
          "name": "isReleased",
          "type": "bool"
        },
        {
          "internalType": "bool",
          "name": "isDelivered",
          "type": "bool"
        },
        {
          "internalType": "bool",
          "name": "isRefunded",
          "type": "bool"
        }
      ],
      "stateMutability": "view",
      "type": "function"
    },
    {
      "inputs": [
        {
          "internalType": "uint256",
          "name": "_purchaseId",
          "type": "uint256"
        }
      ],
      "name": "raiseAppeal",
      "outputs": [],
      "stateMutability": "nonpayable",
      "type": "function"
    },
    {
      "inputs": [
        {
          "internalType": "uint256",
          "name": "_purchaseId",
          "type": "uint256"
        }
      ],
      "name": "refund",
      "outputs": [],
      "stateMutability": "nonpayable",
      "type": "function"
    },
    {
      "inputs": [
        {
          "internalType": "uint256",
          "name": "_purchaseId",
          "type": "uint256"
        }
      ],
      "name": "release",
      "outputs": [],
      "stateMutability": "nonpayable",
      "type": "function"
    },
    {
      "inputs": [
        {
          "internalType": "uint256",
          "name": "_purchaseId",
          "type": "uint256"
        }
      ],
      "name": "releaseFor",
      "outputs": [],
      "stateMutability": "nonpayable",
      "type": "function"
    },
    {
      "inputs": [
        {
          "internalType": "uint256",
          "name": "_planetId",
          "type": "uint256"
        }
      ],
      "name": "requestApproval",
      "outputs": [],
      "stateMutability": "nonpayable",
      "type": "function"
    },
    {
      "inputs": [
        {
          "internalType": "address",
          "name": "",
          "type": "address"
        }
      ],
      "name": "rulerPlanets",
      "outputs": [
        {
          "internalType": "uint256",
          "name": "planetId",
          "type": "uint256"
        },
        {
          "internalType": "string",
          "name": "planetName",
          "type": "string"
        },
        {
          "internalType": "string",
          "name": "planetDescription",
          "type": "string"
        },
        {
          "internalType": "address",
          "name": "ruler",
          "type": "address"
        }
      ],
      "stateMutability": "view",
      "type": "function"
    }
  ],
  "transactionHash": "0x76897abac81cd07c92f03f4bdd6edd104e699f5fb8024209694e8edcfbe1a3ff",
  "args": [
    "0x0DaeDC95e655667E9ff86998C0E0651FC3530067"
  ],
  "numDeployments": 7,
  "solcInputHash": "72590274a4e34534e0a44f1ae1e89a52",
  "bytecode": "0x60806040523480156200001157600080fd5b5060405162002b2c38038062002b2c833981016040819052620000349162000068565b60008054336001600160a01b031991821617909155600180549091166001600160a01b03929092169190911790556200009a565b6000602082840312156200007b57600080fd5b81516001600160a01b03811681146200009357600080fd5b9392505050565b612a8280620000aa6000396000f3fe6080604052600436106101815760003560e01c806376b00e43116100d1578063a04404261161008a578063bed5516711610064578063bed5516714610557578063d1d54c0514610577578063d29079bb14610597578063eb826a5f146105b757600080fd5b8063a0440426146104ee578063ac964f2114610501578063acff86871461051757600080fd5b806376b00e431461035f5780637acc0b2014610375578063802125f5146103a85780638392fe31146103c85780638da5cb5b14610489578063931e52ee146104c157600080fd5b806337bdc99b1161013e5780635ec5d856116101185780635ec5d856146102d25780636d148f84146102f2578063703cd97f14610312578063738f74e11461033257600080fd5b806337bdc99b146102725780633d9808b4146102925780634d41cd62146102b257600080fd5b806320b7bbb514610186578063214bcce0146101bf57806326c1e750146101ec578063278ecde11461020c5780632939359d1461022e57806333bc844f14610252575b600080fd5b34801561019257600080fd5b506101a66101a1366004612378565b6105d7565b6040516101b694939291906123e0565b60405180910390f35b3480156101cb57600080fd5b506101df6101da366004612425565b610719565b6040516101b69190612458565b3480156101f857600080fd5b506101a66102073660046124f9565b6108b6565b34801561021857600080fd5b5061022c6102273660046124f9565b6108d8565b005b34801561023a57600080fd5b5061024460095481565b6040519081526020016101b6565b34801561025e57600080fd5b5061022c61026d366004612378565b610d10565b34801561027e57600080fd5b5061022c61028d3660046124f9565b610f92565b34801561029e57600080fd5b5061022c6102ad3660046125b5565b61113a565b3480156102be57600080fd5b506101df6102cd366004612425565b611285565b3480156102de57600080fd5b5061022c6102ed366004612378565b61140e565b3480156102fe57600080fd5b5061022c61030d3660046124f9565b6114ba565b34801561031e57600080fd5b5061022c61032d36600461263d565b6114f7565b34801561033e57600080fd5b5061024461034d366004612378565b60066020526000908152604090205481565b34801561036b57600080fd5b50610244600b5481565b34801561038157600080fd5b506103956103903660046124f9565b611717565b6040516101b697969594939291906126cd565b3480156103b457600080fd5b5061022c6103c33660046124f9565b6117e6565b3480156103d457600080fd5b5061043c6103e33660046124f9565b60026020819052600091825260409091208054600182015492820154600383015460048401546005909401549294936001600160a01b0392831693929091169160ff808216916101008104821691620100009091041688565b6040805198895260208901979097526001600160a01b03958616968801969096529390921660608601526080850152151560a0840152151560c0830152151560e0820152610100016101b6565b34801561049557600080fd5b506000546104a9906001600160a01b031681565b6040516001600160a01b0390911681526020016101b6565b3480156104cd57600080fd5b506102446104dc366004612378565b60056020526000908152604090205481565b61022c6104fc36600461271a565b611b99565b34801561050d57600080fd5b50610244600a5481565b34801561052357600080fd5b506105476105323660046124f9565b60076020526000908152604090205460ff1681565b60405190151581526020016101b6565b34801561056357600080fd5b506101df61057236600461271a565b611f91565b34801561058357600080fd5b506001546104a9906001600160a01b031681565b3480156105a357600080fd5b5061022c6105b23660046124f9565b612102565b3480156105c357600080fd5b5061022c6105d23660046124f9565b6121e7565b600860205260009081526040902080546001820180549192916105f99061273c565b80601f01602080910402602001604051908101604052809291908181526020018280546106259061273c565b80156106725780601f1061064757610100808354040283529160200191610672565b820191906000526020600020905b81548152906001019060200180831161065557829003601f168201915b5050505050908060020180546106879061273c565b80601f01602080910402602001604051908101604052809291908181526020018280546106b39061273c565b80156107005780601f106106d557610100808354040283529160200191610700565b820191906000526020600020905b8154815290600101906020018083116106e357829003601f168201915b505050600390930154919250506001600160a01b031684565b6060818311156107445760405162461bcd60e51b815260040161073b90612776565b60405180910390fd5b600061075084846127b3565b61075b9060016127c6565b905060008167ffffffffffffffff81111561077857610778612512565b6040519080825280602002602001820160405280156107b157816020015b61079e612318565b8152602001906001900390816107965790505b5090506000855b8581116108aa576000818152600260205260409020600301546001600160a01b03808a16911603610898576000818152600260208181526040928390208351610100808201865282548252600183015493820193909352928101546001600160a01b0390811694840194909452600381015490931660608301526004830154608083015260059092015460ff808216151560a08401529281048316151560c0830152620100009004909116151560e0820152835184908490811061087e5761087e6127d9565b60200260200101819052508180610894906127ef565b9250505b806108a2816127ef565b9150506107b8565b50909695505050505050565b600460205260009081526040902080546001820180549192916105f99061273c565b60008181526002602081815260408084208151610100808201845282548252600180840154838701819052848801546001600160a01b0390811685880152600380870154909116606086015260048087015460808088019190915260059097015460ff808216151560a08901529581048616151560c0880152620100009004909416151560e0860152818a528752858920909701548089529186528488208551948501909552845484528401805489989397969295939493928401919061099e9061273c565b80601f01602080910402602001604051908101604052809291908181526020018280546109ca9061273c565b8015610a175780601f106109ec57610100808354040283529160200191610a17565b820191906000526020600020905b8154815290600101906020018083116109fa57829003601f168201915b50505050508152602001600282018054610a309061273c565b80601f0160208091040260200160405190810160405280929190818152602001828054610a5c9061273c565b8015610aa95780601f10610a7e57610100808354040283529160200191610aa9565b820191906000526020600020905b815481529060010190602001808311610a8c57829003601f168201915b5050509183525050600391909101546001600160a01b039081166020909201919091526060820151919250163314610af35760405162461bcd60e51b815260040161073b90612808565b60008681526007602052604090205460ff16610b5d5760405162461bcd60e51b815260206004820152602360248201527f41707065616c206d75737420626520726169736564206265666f7265207265666044820152621d5b9960ea1b606482015260840161073b565b60008681526002602052604090206005015460ff1615610b8f5760405162461bcd60e51b815260040161073b90612851565b60008681526002602052604090206005015462010000900460ff1615610bf75760405162461bcd60e51b815260206004820152601960248201527f507572636861736520616c726561647920726566756e64656400000000000000604482015260640161073b565b60015460008781526002602081905260409182902090810154600491820154925163a9059cbb60e01b81526001600160a01b0391821692810192909252602482019290925291169063a9059cbb906044016020604051808303816000875af1158015610c67573d6000803e3d6000fd5b505050506040513d601f19601f82011682018060405250810190610c8b9190612888565b506000868152600260209081526040918290206003810154600490910154925192835288926001600160a01b039091169133917f82c4addd7df9bb5b801dcdeb0a67eb8bda3d9e213af78965d584b0be8cb63660910160405180910390a450505060009283525050600260205260409020600501805462ff0000191662010000179055565b6001600160a01b0380821660009081526006602090815260408083205480845260028084528285208351610100808201865282548252600180840154838901819052848601548b1684890152600380860154909b16606085015260048086015460808087019190915260059096015460ff808216151560a08801529481048516151560c0870152620100009004909316151560e0850152808a52998852868920909401548089529087528588208651938401909652855483529285018054949891979196939591949293919291840191610de99061273c565b80601f0160208091040260200160405190810160405280929190818152602001828054610e159061273c565b8015610e625780601f10610e3757610100808354040283529160200191610e62565b820191906000526020600020905b815481529060010190602001808311610e4557829003601f168201915b50505050508152602001600282018054610e7b9061273c565b80601f0160208091040260200160405190810160405280929190818152602001828054610ea79061273c565b8015610ef45780601f10610ec957610100808354040283529160200191610ef4565b820191906000526020600020905b815481529060010190602001808311610ed757829003601f168201915b5050509183525050600391909101546001600160a01b039081166020909201919091526060820151919250163314610f3e5760405162461bcd60e51b815260040161073b90612808565b6001600160a01b03861660008181526006602052604080822080549083905590519092839290917f6db674a69e9ad4a55205180b47485cdc0476c8986d824e9699b2e271382d0c469190a350505050505050565b6000818152600260208190526040909120015481906001600160a01b031633146110105760405162461bcd60e51b815260206004820152602960248201527f4f6e6c79207468652042757965722063616e20706572666f726d20746869732060448201526837b832b930ba34b7b760b91b606482015260840161073b565b60008281526002602052604090206005015460ff16156110425760405162461bcd60e51b815260040161073b90612851565b600154600083815260026020526040908190206003810154600491820154925163a9059cbb60e01b81526001600160a01b0391821692810192909252602482019290925291169063a9059cbb906044016020604051808303816000875af11580156110b1573d6000803e3d6000fd5b505050506040513d601f19601f820116820180604052508101906110d59190612888565b506000828152600260205260409081902060058101805460ff19166001179055600401549051839133917f2c57dec1db0095a6b800c2698d5bbceef2c180c6ac43429769a719658983f6779161112e9190815260200190565b60405180910390a35050565b33600090815260086020526040902054156111a35760405162461bcd60e51b8152602060048201526024808201527f4f6e6c79206f6e6520706c616e657420697320616c6c6f7765642070657220726044820152633ab632b960e11b606482015260840161073b565b6000600b600081546111b4906127ef565b91829055506040805160808101825282815260208082018881528284018790523360608401526000858152600490925292902081518155915192935091600182019061120090826128f9565b506040820151600282019061121590826128f9565b5060609190910151600390910180546001600160a01b0319166001600160a01b03909216919091179055604051339082907fb8efb51f5b4bd967f9a653b1c5be0eac142c1a82ba0c9c11b0b55a0542255f9090611277908890889088906129b9565b60405180910390a350505050565b6060818311156112a75760405162461bcd60e51b815260040161073b90612776565b60006112b384846127b3565b6112be9060016127c6565b905060008167ffffffffffffffff8111156112db576112db612512565b60405190808252806020026020018201604052801561131457816020015b611301612318565b8152602001906001900390816112f95790505b5090506000855b8581116108aa57600081815260026020819052604090912001546001600160a01b03808a169116036113fc576000818152600260208181526040928390208351610100808201865282548252600183015493820193909352928101546001600160a01b0390811694840194909452600381015490931660608301526004830154608083015260059092015460ff808216151560a08401529281048316151560c0830152620100009004909116151560e082015283518490849081106113e2576113e26127d9565b602002602001018190525081806113f8906127ef565b9250505b80611406816127ef565b91505061131b565b6001600160a01b03818116600090815260066020908152604080832054808452600490925290912060030154909116331461145b5760405162461bcd60e51b815260040161073b90612808565b6001600160a01b03821660008181526006602081815260408084208054600584528286208190559390925290839055519092839290917f8858b15a4f1540b0df00082304b78a2330d9ed2951d395bbccb90c257e298ab49190a3505050565b33600081815260066020526040808220849055518392917f476871eccc7ab517c1c23acfd3954e8ed6fe523bbe0b0ab9a9611d3324ec08ee91a350565b33600090815260056020526040902054859081146115665760405162461bcd60e51b815260206004820152602660248201527f4f6e6c7920617070726f7665642073656c6c6572732063616e206164642070726044820152656f647563747360d01b606482015260840161073b565b6000600a60008154611577906127ef565b91829055506000888152600460205260409020600301549091506001600160a01b03908116908616036116065760405162461bcd60e51b815260206004820152603160248201527f52756c6572732063616e6e6f74206372656174652070726f6475637473206f6e604482015270081d1a195a5c881bdddb881c1b185b995d607a1b606482015260840161073b565b6040805160e08101825289815260208082018490528183018a90526001600160a01b03881660608301526080820187905260a08201869052600060c083018190528481526003909152919091208151819061166190826128f9565b50602082015181600101556040820151816002015560608201518160030160006101000a8154816001600160a01b0302191690836001600160a01b031602179055506080820151816004015560a0820151816005015560c08201518160060155905050846001600160a01b031687827fcf0ba578d8fa98165d2b7dee4fc33f41671e1c181f06f9e05270d9a563a1812e898c898960405161170594939291906129fc565b60405180910390a45050505050505050565b6003602052600090815260409020805481906117329061273c565b80601f016020809104026020016040519081016040528092919081815260200182805461175e9061273c565b80156117ab5780601f10611780576101008083540402835291602001916117ab565b820191906000526020600020905b81548152906001019060200180831161178e57829003601f168201915b50505060018401546002850154600386015460048701546005880154600690980154969793969295506001600160a01b039091169350919087565b60008181526002602081815260408084208151610100808201845282548252600180840154838701819052848801546001600160a01b0390811685880152600380870154909116606086015260048087015460808088019190915260059097015460ff808216151560a08901529581048616151560c0880152620100009004909416151560e0860152818a52875285892090970154808952918652848820855194850190955284548452840180548998939796929593949392840191906118ac9061273c565b80601f01602080910402602001604051908101604052809291908181526020018280546118d89061273c565b80156119255780601f106118fa57610100808354040283529160200191611925565b820191906000526020600020905b81548152906001019060200180831161190857829003601f168201915b5050505050815260200160028201805461193e9061273c565b80601f016020809104026020016040519081016040528092919081815260200182805461196a9061273c565b80156119b75780601f1061198c576101008083540402835291602001916119b7565b820191906000526020600020905b81548152906001019060200180831161199a57829003601f168201915b5050509183525050600391909101546001600160a01b039081166020909201919091526060820151919250163314611a015760405162461bcd60e51b815260040161073b90612808565b60008681526007602052604090205460ff16611a6b5760405162461bcd60e51b8152602060048201526024808201527f41707065616c206d75737420626520726169736564206265666f72652072656c6044820152636561736560e01b606482015260840161073b565b60008681526002602052604090206005015460ff1615611a9d5760405162461bcd60e51b815260040161073b90612851565b600154600087815260026020526040908190206003810154600491820154925163a9059cbb60e01b81526001600160a01b0391821692810192909252602482019290925291169063a9059cbb906044016020604051808303816000875af1158015611b0c573d6000803e3d6000fd5b505050506040513d601f19601f82011682018060405250810190611b309190612888565b506000868152600260205260409081902060058101805460ff19166001179055600401549051879133917f2c57dec1db0095a6b800c2698d5bbceef2c180c6ac43429769a719658983f67791611b899190815260200190565b60405180910390a3505050505050565b600082815260036020526040902060040154811115611c135760405162461bcd60e51b815260206004820152603060248201527f496e73756666696369656e7420696e76656e746f7279206f722070726f64756360448201526f1d08191bd95cc81b9bdd08195e1a5cdd60821b606482015260840161073b565b600082815260036020818152604080842060020154808552600490925290922001546001600160a01b03163303611c9c5760405162461bcd60e51b815260206004820152602760248201527f52756c6572732063616e6e6f74206275792066726f6d207468656972206f776e604482015266081c1b185b995d60ca1b606482015260840161073b565b600083815260036020526040812060050154611cb9908490612a35565b6001546040516323b872dd60e01b8152336004820152306024820152604481018390529192506001600160a01b0316906323b872dd906064016020604051808303816000875af1158015611d11573d6000803e3d6000fd5b505050506040513d601f19601f82011682018060405250810190611d359190612888565b5060098054906000611d46836127ef565b909155505060008481526003602052604081206004018054859290611d6c9084906127b3565b909155505060008481526003602052604081206006018054859290611d929084906127c6565b925050819055506040518061010001604052806009548152602001858152602001336001600160a01b031681526020016003600087815260200190815260200160002060030160009054906101000a90046001600160a01b03166001600160a01b0316815260200182815260200160001515815260200160001515815260200160001515815250600260006009548152602001908152602001600020600082015181600001556020820151816001015560408201518160020160006101000a8154816001600160a01b0302191690836001600160a01b0316021790555060608201518160030160006101000a8154816001600160a01b0302191690836001600160a01b031602179055506080820151816004015560a08201518160050160006101000a81548160ff02191690831515021790555060c08201518160050160016101000a81548160ff02191690831515021790555060e08201518160050160026101000a81548160ff0219169083151502179055509050506003600085815260200190815260200160002060030160009054906101000a90046001600160a01b03166001600160a01b0316336001600160a01b03166009547f80af6c445a8ff068828bb5ba9bd06f39a217e51f6102a5ea4a579a16865fc3998787604051611f83929190918252602082015260400190565b60405180910390a450505050565b606081831115611fb35760405162461bcd60e51b815260040161073b90612776565b6000611fbf84846127b3565b611fca9060016127c6565b905060008167ffffffffffffffff811115611fe757611fe7612512565b60405190808252806020026020018201604052801561202057816020015b61200d612318565b8152602001906001900390816120055790505b5090506000855b8581116120f5576000818152600260208181526040928390208351610100808201865282548252600183015493820193909352928101546001600160a01b0390811694840194909452600381015490931660608301526004830154608083015260059092015460ff808216151560a08401529281048316151560c0830152620100009004909116151560e082015283518490849081106120c9576120c96127d9565b602002602001018190525081806120df906127ef565b92505080806120ed906127ef565b915050612027565b5090925050505b92915050565b600081815260026020819052604090912001546001600160a01b031633148061214457506000818152600260205260409020600301546001600160a01b031633145b6121a15760405162461bcd60e51b815260206004820152602860248201527f4f6e6c79206275796572206f722073656c6c65722063616e20726169736520616044820152671b88185c1c19585b60c21b606482015260840161073b565b600081815260076020526040808220805460ff1916600117905551339183917f84fe926178a9a001285f5126878cb13cc2d8c091b23b313f76a0875d230b627c9190a350565b60008181526002602052604090206003015481906001600160a01b031633146122655760405162461bcd60e51b815260206004820152602a60248201527f4f6e6c79207468652053656c6c65722063616e20706572666f726d20746869736044820152691037b832b930ba34b7b760b11b606482015260840161073b565b600082815260026020526040902060050154610100900460ff16156122be5760405162461bcd60e51b815260206004820152600f60248201526e105b1c9958591e481cda1a5c1c1959608a1b604482015260640161073b565b6000828152600260205260409081902060058101805461ff001916610100179055600401549051839133917f47357acf7cd02d7a69ba4d681fead1ba8015768d36e56cdd2340d1cc0a148d649161112e9190815260200190565b6040805161010081018252600080825260208201819052918101829052606081018290526080810182905260a0810182905260c0810182905260e081019190915290565b80356001600160a01b038116811461237357600080fd5b919050565b60006020828403121561238a57600080fd5b6123938261235c565b9392505050565b6000815180845260005b818110156123c0576020818501810151868301820152016123a4565b506000602082860101526020601f19601f83011685010191505092915050565b8481526080602082015260006123f9608083018661239a565b828103604084015261240b818661239a565b91505060018060a01b038316606083015295945050505050565b60008060006060848603121561243a57600080fd5b6124438461235c565b95602085013595506040909401359392505050565b602080825282518282018190526000919060409081850190868401855b828110156124ec578151805185528681015187860152858101516001600160a01b0390811687870152606080830151909116908601526080808201519086015260a08082015115159086015260c08082015115159086015260e0908101511515908501526101009093019290850190600101612475565b5091979650505050505050565b60006020828403121561250b57600080fd5b5035919050565b634e487b7160e01b600052604160045260246000fd5b600082601f83011261253957600080fd5b813567ffffffffffffffff8082111561255457612554612512565b604051601f8301601f19908116603f0116810190828211818310171561257c5761257c612512565b8160405283815286602085880101111561259557600080fd5b836020870160208301376000602085830101528094505050505092915050565b6000806000606084860312156125ca57600080fd5b833567ffffffffffffffff808211156125e257600080fd5b6125ee87838801612528565b9450602086013591508082111561260457600080fd5b61261087838801612528565b9350604086013591508082111561262657600080fd5b5061263386828701612528565b9150509250925092565b60008060008060008060c0878903121561265657600080fd5b863567ffffffffffffffff8082111561266e57600080fd5b61267a8a838b01612528565b975060208901359650604089013591508082111561269757600080fd5b506126a489828a01612528565b9450506126b36060880161235c565b92506080870135915060a087013590509295509295509295565b60e0815260006126e060e083018a61239a565b60208301989098525060408101959095526001600160a01b03939093166060850152608084019190915260a083015260c090910152919050565b6000806040838503121561272d57600080fd5b50508035926020909101359150565b600181811c9082168061275057607f821691505b60208210810361277057634e487b7160e01b600052602260045260246000fd5b50919050565b6020808252600d908201526c496e76616c69642072616e676560981b604082015260600190565b634e487b7160e01b600052601160045260246000fd5b818103818111156120fc576120fc61279d565b808201808211156120fc576120fc61279d565b634e487b7160e01b600052603260045260246000fd5b6000600182016128015761280161279d565b5060010190565b60208082526029908201527f4f6e6c79207468652052756c65722063616e20706572666f726d20746869732060408201526837b832b930ba34b7b760b91b606082015260800190565b6020808252601a908201527f46756e64732061726520616c72656164792072656c6561736564000000000000604082015260600190565b60006020828403121561289a57600080fd5b8151801515811461239357600080fd5b601f8211156128f457600081815260208120601f850160051c810160208610156128d15750805b601f850160051c820191505b818110156128f0578281556001016128dd565b5050505b505050565b815167ffffffffffffffff81111561291357612913612512565b61292781612921845461273c565b846128aa565b602080601f83116001811461295c57600084156129445750858301515b600019600386901b1c1916600185901b1785556128f0565b600085815260208120601f198616915b8281101561298b5788860151825594840194600190910190840161296c565b50858210156129a95787850151600019600388901b60f8161c191681555b5050505050600190811b01905550565b6060815260006129cc606083018661239a565b82810360208401526129de818661239a565b905082810360408401526129f2818561239a565b9695505050505050565b608081526000612a0f608083018761239a565b8281036020840152612a21818761239a565b604084019590955250506060015292915050565b80820281158282048414176120fc576120fc61279d56fea2646970667358221220c033e378ecee2edee295076edcf7a0ed84938d56c7507116562432999b5d135364736f6c63430008110033",
  "devdoc": {
    "kind": "dev",
    "methods": {},
    "version": 1
  },
  "userdoc": {
    "kind": "user",
    "methods": {},
    "version": 1
  },
  "storageLayout": {
    "storage": [
      {
        "astId": 830,
        "contract": "contracts/Duniverse.sol:Duniverse",
        "label": "owner",
        "offset": 0,
        "slot": "0",
        "type": "t_address"
      },
      {
        "astId": 832,
        "contract": "contracts/Duniverse.sol:Duniverse",
        "label": "MOCKUSDT_ADDRESS",
        "offset": 0,
        "slot": "1",
        "type": "t_address"
      },
      {
        "astId": 837,
        "contract": "contracts/Duniverse.sol:Duniverse",
        "label": "purchases",
        "offset": 0,
        "slot": "2",
        "type": "t_mapping(t_uint256,t_struct(Purchase)896_storage)"
      },
      {
        "astId": 842,
        "contract": "contracts/Duniverse.sol:Duniverse",
        "label": "products",
        "offset": 0,
        "slot": "3",
        "type": "t_mapping(t_uint256,t_struct(Product)911_storage)"
      },
      {
        "astId": 847,
        "contract": "contracts/Duniverse.sol:Duniverse",
        "label": "planets",
        "offset": 0,
        "slot": "4",
        "type": "t_mapping(t_uint256,t_struct(Planet)879_storage)"
      },
      {
        "astId": 851,
        "contract": "contracts/Duniverse.sol:Duniverse",
        "label": "approvedSellers",
        "offset": 0,
        "slot": "5",
        "type": "t_mapping(t_address,t_uint256)"
      },
      {
        "astId": 855,
        "contract": "contracts/Duniverse.sol:Duniverse",
        "label": "approvalRequests",
        "offset": 0,
        "slot": "6",
        "type": "t_mapping(t_address,t_uint256)"
      },
      {
        "astId": 859,
        "contract": "contracts/Duniverse.sol:Duniverse",
        "label": "appeals",
        "offset": 0,
        "slot": "7",
        "type": "t_mapping(t_uint256,t_bool)"
      },
      {
        "astId": 864,
        "contract": "contracts/Duniverse.sol:Duniverse",
        "label": "rulerPlanets",
        "offset": 0,
        "slot": "8",
        "type": "t_mapping(t_address,t_struct(Planet)879_storage)"
      },
      {
        "astId": 866,
        "contract": "contracts/Duniverse.sol:Duniverse",
        "label": "numPurchases",
        "offset": 0,
        "slot": "9",
        "type": "t_uint256"
      },
      {
        "astId": 868,
        "contract": "contracts/Duniverse.sol:Duniverse",
        "label": "numProducts",
        "offset": 0,
        "slot": "10",
        "type": "t_uint256"
      },
      {
        "astId": 870,
        "contract": "contracts/Duniverse.sol:Duniverse",
        "label": "numPlanets",
        "offset": 0,
        "slot": "11",
        "type": "t_uint256"
      }
    ],
    "types": {
      "t_address": {
        "encoding": "inplace",
        "label": "address",
        "numberOfBytes": "20"
      },
      "t_bool": {
        "encoding": "inplace",
        "label": "bool",
        "numberOfBytes": "1"
      },
      "t_mapping(t_address,t_struct(Planet)879_storage)": {
        "encoding": "mapping",
        "key": "t_address",
        "label": "mapping(address => struct Duniverse.Planet)",
        "numberOfBytes": "32",
        "value": "t_struct(Planet)879_storage"
      },
      "t_mapping(t_address,t_uint256)": {
        "encoding": "mapping",
        "key": "t_address",
        "label": "mapping(address => uint256)",
        "numberOfBytes": "32",
        "value": "t_uint256"
      },
      "t_mapping(t_uint256,t_bool)": {
        "encoding": "mapping",
        "key": "t_uint256",
        "label": "mapping(uint256 => bool)",
        "numberOfBytes": "32",
        "value": "t_bool"
      },
      "t_mapping(t_uint256,t_struct(Planet)879_storage)": {
        "encoding": "mapping",
        "key": "t_uint256",
        "label": "mapping(uint256 => struct Duniverse.Planet)",
        "numberOfBytes": "32",
        "value": "t_struct(Planet)879_storage"
      },
      "t_mapping(t_uint256,t_struct(Product)911_storage)": {
        "encoding": "mapping",
        "key": "t_uint256",
        "label": "mapping(uint256 => struct Duniverse.Product)",
        "numberOfBytes": "32",
        "value": "t_struct(Product)911_storage"
      },
      "t_mapping(t_uint256,t_struct(Purchase)896_storage)": {
        "encoding": "mapping",
        "key": "t_uint256",
        "label": "mapping(uint256 => struct Duniverse.Purchase)",
        "numberOfBytes": "32",
        "value": "t_struct(Purchase)896_storage"
      },
      "t_string_storage": {
        "encoding": "bytes",
        "label": "string",
        "numberOfBytes": "32"
      },
      "t_struct(Planet)879_storage": {
        "encoding": "inplace",
        "label": "struct Duniverse.Planet",
        "members": [
          {
            "astId": 872,
            "contract": "contracts/Duniverse.sol:Duniverse",
            "label": "planetId",
            "offset": 0,
            "slot": "0",
            "type": "t_uint256"
          },
          {
            "astId": 874,
            "contract": "contracts/Duniverse.sol:Duniverse",
            "label": "planetName",
            "offset": 0,
            "slot": "1",
            "type": "t_string_storage"
          },
          {
            "astId": 876,
            "contract": "contracts/Duniverse.sol:Duniverse",
            "label": "planetDescription",
            "offset": 0,
            "slot": "2",
            "type": "t_string_storage"
          },
          {
            "astId": 878,
            "contract": "contracts/Duniverse.sol:Duniverse",
            "label": "ruler",
            "offset": 0,
            "slot": "3",
            "type": "t_address"
          }
        ],
        "numberOfBytes": "128"
      },
      "t_struct(Product)911_storage": {
        "encoding": "inplace",
        "label": "struct Duniverse.Product",
        "members": [
          {
            "astId": 898,
            "contract": "contracts/Duniverse.sol:Duniverse",
            "label": "productName",
            "offset": 0,
            "slot": "0",
            "type": "t_string_storage"
          },
          {
            "astId": 900,
            "contract": "contracts/Duniverse.sol:Duniverse",
            "label": "productId",
            "offset": 0,
            "slot": "1",
            "type": "t_uint256"
          },
          {
            "astId": 902,
            "contract": "contracts/Duniverse.sol:Duniverse",
            "label": "planetId",
            "offset": 0,
            "slot": "2",
            "type": "t_uint256"
          },
          {
            "astId": 904,
            "contract": "contracts/Duniverse.sol:Duniverse",
            "label": "seller",
            "offset": 0,
            "slot": "3",
            "type": "t_address"
          },
          {
            "astId": 906,
            "contract": "contracts/Duniverse.sol:Duniverse",
            "label": "quantity",
            "offset": 0,
            "slot": "4",
            "type": "t_uint256"
          },
          {
            "astId": 908,
            "contract": "contracts/Duniverse.sol:Duniverse",
            "label": "price",
            "offset": 0,
            "slot": "5",
            "type": "t_uint256"
          },
          {
            "astId": 910,
            "contract": "contracts/Duniverse.sol:Duniverse",
            "label": "sales",
            "offset": 0,
            "slot": "6",
            "type": "t_uint256"
          }
        ],
        "numberOfBytes": "224"
      },
      "t_struct(Purchase)896_storage": {
        "encoding": "inplace",
        "label": "struct Duniverse.Purchase",
        "members": [
          {
            "astId": 881,
            "contract": "contracts/Duniverse.sol:Duniverse",
            "label": "purchaseId",
            "offset": 0,
            "slot": "0",
            "type": "t_uint256"
          },
          {
            "astId": 883,
            "contract": "contracts/Duniverse.sol:Duniverse",
            "label": "productId",
            "offset": 0,
            "slot": "1",
            "type": "t_uint256"
          },
          {
            "astId": 885,
            "contract": "contracts/Duniverse.sol:Duniverse",
            "label": "buyer",
            "offset": 0,
            "slot": "2",
            "type": "t_address"
          },
          {
            "astId": 887,
            "contract": "contracts/Duniverse.sol:Duniverse",
            "label": "seller",
            "offset": 0,
            "slot": "3",
            "type": "t_address"
          },
          {
            "astId": 889,
            "contract": "contracts/Duniverse.sol:Duniverse",
            "label": "amount",
            "offset": 0,
            "slot": "4",
            "type": "t_uint256"
          },
          {
            "astId": 891,
            "contract": "contracts/Duniverse.sol:Duniverse",
            "label": "isReleased",
            "offset": 0,
            "slot": "5",
            "type": "t_bool"
          },
          {
            "astId": 893,
            "contract": "contracts/Duniverse.sol:Duniverse",
            "label": "isDelivered",
            "offset": 1,
            "slot": "5",
            "type": "t_bool"
          },
          {
            "astId": 895,
            "contract": "contracts/Duniverse.sol:Duniverse",
            "label": "isRefunded",
            "offset": 2,
            "slot": "5",
            "type": "t_bool"
          }
        ],
        "numberOfBytes": "192"
      },
      "t_uint256": {
        "encoding": "inplace",
        "label": "uint256",
        "numberOfBytes": "32"
      }
    }
  }
}