{
  "address": "0x8750753695D7F994eF159Cc52B49f0930374D4CE",
  "abi": [
    {
      "inputs": [
        {
          "internalType": "address",
          "name": "_MOCKUSDT_ADDRESS",
          "type": "address"
        }
      ],
      "stateMutability": "nonpayable",
      "type": "constructor"
    },
    {
      "anonymous": false,
      "inputs": [
        {
          "indexed": true,
          "internalType": "uint256",
          "name": "purchaseId",
          "type": "uint256"
        },
        {
          "indexed": true,
          "internalType": "address",
          "name": "by",
          "type": "address"
        }
      ],
      "name": "AppealRaised",
      "type": "event"
    },
    {
      "anonymous": false,
      "inputs": [
        {
          "indexed": true,
          "internalType": "address",
          "name": "seller",
          "type": "address"
        },
        {
          "indexed": false,
          "internalType": "uint256",
          "name": "planetId",
          "type": "uint256"
        }
      ],
      "name": "ApprovalDeclined",
      "type": "event"
    },
    {
      "anonymous": false,
      "inputs": [
        {
          "indexed": true,
          "internalType": "address",
          "name": "seller",
          "type": "address"
        },
        {
          "indexed": false,
          "internalType": "uint256",
          "name": "planetId",
          "type": "uint256"
        }
      ],
      "name": "ApprovalGranted",
      "type": "event"
    },
    {
      "anonymous": false,
      "inputs": [
        {
          "indexed": true,
          "internalType": "address",
          "name": "seller",
          "type": "address"
        },
        {
          "indexed": false,
          "internalType": "uint256",
          "name": "planetId",
          "type": "uint256"
        }
      ],
      "name": "ApprovalRequested",
      "type": "event"
    },
    {
      "anonymous": false,
      "inputs": [
        {
          "indexed": true,
          "internalType": "address",
          "name": "buyer",
          "type": "address"
        },
        {
          "indexed": false,
          "internalType": "uint256",
          "name": "purchaseId",
          "type": "uint256"
        },
        {
          "indexed": false,
          "internalType": "uint256",
          "name": "totalAmount",
          "type": "uint256"
        }
      ],
      "name": "Delivered",
      "type": "event"
    },
    {
      "anonymous": false,
      "inputs": [
        {
          "indexed": true,
          "internalType": "uint256",
          "name": "planetId",
          "type": "uint256"
        },
        {
          "indexed": false,
          "internalType": "string",
          "name": "planetName",
          "type": "string"
        },
        {
          "indexed": false,
          "internalType": "string",
          "name": "planetDescription",
          "type": "string"
        },
        {
          "indexed": true,
          "internalType": "address",
          "name": "ruler",
          "type": "address"
        }
      ],
      "name": "PlanetCreated",
      "type": "event"
    },
    {
      "anonymous": false,
      "inputs": [
        {
          "indexed": true,
          "internalType": "uint256",
          "name": "productId",
          "type": "uint256"
        },
        {
          "indexed": true,
          "internalType": "uint256",
          "name": "planetId",
          "type": "uint256"
        },
        {
          "indexed": true,
          "internalType": "address",
          "name": "seller",
          "type": "address"
        },
        {
          "indexed": false,
          "internalType": "uint256",
          "name": "quantity",
          "type": "uint256"
        },
        {
          "indexed": false,
          "internalType": "uint256",
          "name": "price",
          "type": "uint256"
        }
      ],
      "name": "ProductAdded",
      "type": "event"
    },
    {
      "anonymous": false,
      "inputs": [
        {
          "indexed": true,
          "internalType": "address",
          "name": "buyer",
          "type": "address"
        },
        {
          "indexed": true,
          "internalType": "address",
          "name": "seller",
          "type": "address"
        },
        {
          "indexed": false,
          "internalType": "uint256",
          "name": "purchaseId",
          "type": "uint256"
        },
        {
          "indexed": false,
          "internalType": "uint256",
          "name": "totalAmount",
          "type": "uint256"
        }
      ],
      "name": "Refund",
      "type": "event"
    },
    {
      "anonymous": false,
      "inputs": [
        {
          "indexed": true,
          "internalType": "address",
          "name": "buyer",
          "type": "address"
        },
        {
          "indexed": false,
          "internalType": "uint256",
          "name": "purchaseId",
          "type": "uint256"
        },
        {
          "indexed": false,
          "internalType": "uint256",
          "name": "totalAmount",
          "type": "uint256"
        }
      ],
      "name": "Release",
      "type": "event"
    },
    {
      "anonymous": false,
      "inputs": [
        {
          "indexed": true,
          "internalType": "address",
          "name": "buyer",
          "type": "address"
        },
        {
          "indexed": false,
          "internalType": "uint256",
          "name": "purchaseId",
          "type": "uint256"
        },
        {
          "indexed": false,
          "internalType": "uint256",
          "name": "totalAmount",
          "type": "uint256"
        }
      ],
      "name": "Sale",
      "type": "event"
    },
    {
      "inputs": [],
      "name": "MOCKUSDT_ADDRESS",
      "outputs": [
        {
          "internalType": "address",
          "name": "",
          "type": "address"
        }
      ],
      "stateMutability": "view",
      "type": "function"
    },
    {
      "inputs": [
        {
          "internalType": "uint256",
          "name": "_productId",
          "type": "uint256"
        },
        {
          "internalType": "uint256",
          "name": "_planetId",
          "type": "uint256"
        },
        {
          "internalType": "address",
          "name": "_seller",
          "type": "address"
        },
        {
          "internalType": "uint256",
          "name": "_quantity",
          "type": "uint256"
        },
        {
          "internalType": "uint256",
          "name": "_price",
          "type": "uint256"
        }
      ],
      "name": "addProduct",
      "outputs": [],
      "stateMutability": "nonpayable",
      "type": "function"
    },
    {
      "inputs": [
        {
          "internalType": "uint256",
          "name": "",
          "type": "uint256"
        }
      ],
      "name": "appeals",
      "outputs": [
        {
          "internalType": "bool",
          "name": "",
          "type": "bool"
        }
      ],
      "stateMutability": "view",
      "type": "function"
    },
    {
      "inputs": [
        {
          "internalType": "address",
          "name": "",
          "type": "address"
        }
      ],
      "name": "approvalRequests",
      "outputs": [
        {
          "internalType": "uint256",
          "name": "",
          "type": "uint256"
        }
      ],
      "stateMutability": "view",
      "type": "function"
    },
    {
      "inputs": [
        {
          "internalType": "address",
          "name": "_seller",
          "type": "address"
        }
      ],
      "name": "approveSeller",
      "outputs": [],
      "stateMutability": "nonpayable",
      "type": "function"
    },
    {
      "inputs": [
        {
          "internalType": "address",
          "name": "",
          "type": "address"
        }
      ],
      "name": "approvedSellers",
      "outputs": [
        {
          "internalType": "uint256",
          "name": "",
          "type": "uint256"
        }
      ],
      "stateMutability": "view",
      "type": "function"
    },
    {
      "inputs": [
        {
          "internalType": "uint256",
          "name": "_planetId",
          "type": "uint256"
        },
        {
          "internalType": "string",
          "name": "_planetName",
          "type": "string"
        },
        {
          "internalType": "string",
          "name": "_planetDescription",
          "type": "string"
        }
      ],
      "name": "createPlanet",
      "outputs": [],
      "stateMutability": "nonpayable",
      "type": "function"
    },
    {
      "inputs": [
        {
          "internalType": "address",
          "name": "_seller",
          "type": "address"
        }
      ],
      "name": "declineSeller",
      "outputs": [],
      "stateMutability": "nonpayable",
      "type": "function"
    },
    {
      "inputs": [
        {
          "internalType": "address",
          "name": "buyer",
          "type": "address"
        },
        {
          "internalType": "uint256",
          "name": "start",
          "type": "uint256"
        },
        {
          "internalType": "uint256",
          "name": "end",
          "type": "uint256"
        }
      ],
      "name": "getBuyerPurchases",
      "outputs": [
        {
          "components": [
            {
              "internalType": "uint256",
              "name": "purchaseId",
              "type": "uint256"
            },
            {
              "internalType": "uint256",
              "name": "productId",
              "type": "uint256"
            },
            {
              "internalType": "address",
              "name": "buyer",
              "type": "address"
            },
            {
              "internalType": "address",
              "name": "seller",
              "type": "address"
            },
            {
              "internalType": "uint256",
              "name": "amount",
              "type": "uint256"
            },
            {
              "internalType": "bool",
              "name": "isReleased",
              "type": "bool"
            },
            {
              "internalType": "bool",
              "name": "isDelivered",
              "type": "bool"
            },
            {
              "internalType": "bool",
              "name": "isRefunded",
              "type": "bool"
            }
          ],
          "internalType": "struct Duniverse.Purchase[]",
          "name": "",
          "type": "tuple[]"
        }
      ],
      "stateMutability": "view",
      "type": "function"
    },
    {
      "inputs": [
        {
          "internalType": "uint256",
          "name": "start",
          "type": "uint256"
        },
        {
          "internalType": "uint256",
          "name": "end",
          "type": "uint256"
        }
      ],
      "name": "getPurchases",
      "outputs": [
        {
          "components": [
            {
              "internalType": "uint256",
              "name": "purchaseId",
              "type": "uint256"
            },
            {
              "internalType": "uint256",
              "name": "productId",
              "type": "uint256"
            },
            {
              "internalType": "address",
              "name": "buyer",
              "type": "address"
            },
            {
              "internalType": "address",
              "name": "seller",
              "type": "address"
            },
            {
              "internalType": "uint256",
              "name": "amount",
              "type": "uint256"
            },
            {
              "internalType": "bool",
              "name": "isReleased",
              "type": "bool"
            },
            {
              "internalType": "bool",
              "name": "isDelivered",
              "type": "bool"
            },
            {
              "internalType": "bool",
              "name": "isRefunded",
              "type": "bool"
            }
          ],
          "internalType": "struct Duniverse.Purchase[]",
          "name": "",
          "type": "tuple[]"
        }
      ],
      "stateMutability": "view",
      "type": "function"
    },
    {
      "inputs": [
        {
          "internalType": "address",
          "name": "seller",
          "type": "address"
        },
        {
          "internalType": "uint256",
          "name": "start",
          "type": "uint256"
        },
        {
          "internalType": "uint256",
          "name": "end",
          "type": "uint256"
        }
      ],
      "name": "getSellerPurchases",
      "outputs": [
        {
          "components": [
            {
              "internalType": "uint256",
              "name": "purchaseId",
              "type": "uint256"
            },
            {
              "internalType": "uint256",
              "name": "productId",
              "type": "uint256"
            },
            {
              "internalType": "address",
              "name": "buyer",
              "type": "address"
            },
            {
              "internalType": "address",
              "name": "seller",
              "type": "address"
            },
            {
              "internalType": "uint256",
              "name": "amount",
              "type": "uint256"
            },
            {
              "internalType": "bool",
              "name": "isReleased",
              "type": "bool"
            },
            {
              "internalType": "bool",
              "name": "isDelivered",
              "type": "bool"
            },
            {
              "internalType": "bool",
              "name": "isRefunded",
              "type": "bool"
            }
          ],
          "internalType": "struct Duniverse.Purchase[]",
          "name": "",
          "type": "tuple[]"
        }
      ],
      "stateMutability": "view",
      "type": "function"
    },
    {
      "inputs": [
        {
          "internalType": "uint256",
          "name": "_purchaseId",
          "type": "uint256"
        }
      ],
      "name": "markDelivered",
      "outputs": [],
      "stateMutability": "nonpayable",
      "type": "function"
    },
    {
      "inputs": [],
      "name": "numPurchases",
      "outputs": [
        {
          "internalType": "uint256",
          "name": "",
          "type": "uint256"
        }
      ],
      "stateMutability": "view",
      "type": "function"
    },
    {
      "inputs": [],
      "name": "owner",
      "outputs": [
        {
          "internalType": "address",
          "name": "",
          "type": "address"
        }
      ],
      "stateMutability": "view",
      "type": "function"
    },
    {
      "inputs": [
        {
          "internalType": "uint256",
          "name": "",
          "type": "uint256"
        }
      ],
      "name": "planets",
      "outputs": [
        {
          "internalType": "uint256",
          "name": "planetId",
          "type": "uint256"
        },
        {
          "internalType": "string",
          "name": "planetName",
          "type": "string"
        },
        {
          "internalType": "string",
          "name": "planetDescription",
          "type": "string"
        },
        {
          "internalType": "address",
          "name": "ruler",
          "type": "address"
        }
      ],
      "stateMutability": "view",
      "type": "function"
    },
    {
      "inputs": [
        {
          "internalType": "uint256",
          "name": "",
          "type": "uint256"
        }
      ],
      "name": "products",
      "outputs": [
        {
          "internalType": "uint256",
          "name": "productId",
          "type": "uint256"
        },
        {
          "internalType": "uint256",
          "name": "planetId",
          "type": "uint256"
        },
        {
          "internalType": "address",
          "name": "seller",
          "type": "address"
        },
        {
          "internalType": "uint256",
          "name": "quantity",
          "type": "uint256"
        },
        {
          "internalType": "uint256",
          "name": "price",
          "type": "uint256"
        },
        {
          "internalType": "uint256",
          "name": "sales",
          "type": "uint256"
        }
      ],
      "stateMutability": "view",
      "type": "function"
    },
    {
      "inputs": [
        {
          "internalType": "uint256",
          "name": "_productId",
          "type": "uint256"
        },
        {
          "internalType": "uint256",
          "name": "_quantity",
          "type": "uint256"
        }
      ],
      "name": "purchaseProduct",
      "outputs": [],
      "stateMutability": "payable",
      "type": "function"
    },
    {
      "inputs": [
        {
          "internalType": "uint256",
          "name": "",
          "type": "uint256"
        }
      ],
      "name": "purchases",
      "outputs": [
        {
          "internalType": "uint256",
          "name": "purchaseId",
          "type": "uint256"
        },
        {
          "internalType": "uint256",
          "name": "productId",
          "type": "uint256"
        },
        {
          "internalType": "address",
          "name": "buyer",
          "type": "address"
        },
        {
          "internalType": "address",
          "name": "seller",
          "type": "address"
        },
        {
          "internalType": "uint256",
          "name": "amount",
          "type": "uint256"
        },
        {
          "internalType": "bool",
          "name": "isReleased",
          "type": "bool"
        },
        {
          "internalType": "bool",
          "name": "isDelivered",
          "type": "bool"
        },
        {
          "internalType": "bool",
          "name": "isRefunded",
          "type": "bool"
        }
      ],
      "stateMutability": "view",
      "type": "function"
    },
    {
      "inputs": [
        {
          "internalType": "uint256",
          "name": "_purchaseId",
          "type": "uint256"
        }
      ],
      "name": "raiseAppeal",
      "outputs": [],
      "stateMutability": "nonpayable",
      "type": "function"
    },
    {
      "inputs": [
        {
          "internalType": "uint256",
          "name": "_purchaseId",
          "type": "uint256"
        }
      ],
      "name": "refund",
      "outputs": [],
      "stateMutability": "nonpayable",
      "type": "function"
    },
    {
      "inputs": [
        {
          "internalType": "uint256",
          "name": "_purchaseId",
          "type": "uint256"
        }
      ],
      "name": "release",
      "outputs": [],
      "stateMutability": "nonpayable",
      "type": "function"
    },
    {
      "inputs": [
        {
          "internalType": "uint256",
          "name": "_purchaseId",
          "type": "uint256"
        }
      ],
      "name": "releaseFor",
      "outputs": [],
      "stateMutability": "nonpayable",
      "type": "function"
    },
    {
      "inputs": [
        {
          "internalType": "uint256",
          "name": "_planetId",
          "type": "uint256"
        }
      ],
      "name": "requestApproval",
      "outputs": [],
      "stateMutability": "nonpayable",
      "type": "function"
    }
  ],
  "transactionHash": "0xddd93d8b93d30d88c7732c06b4fbab1a36ebb051ce09ec97f48de37daafea3d1",
  "args": [
    "0xe8fB78FD7C76A3e2f500d4302E8a75E6706804f8"
  ],
  "numDeployments": 1,
  "solcInputHash": "f94bdbc8d8050fa3fd22c45719d084de",
  "bytecode": "0x60806040523480156200001157600080fd5b506040516200277c3803806200277c833981016040819052620000349162000068565b60008054336001600160a01b031991821617909155600180549091166001600160a01b03929092169190911790556200009a565b6000602082840312156200007b57600080fd5b81516001600160a01b03811681146200009357600080fd5b9392505050565b6126d280620000aa6000396000f3fe6080604052600436106101405760003560e01c80637acc0b20116100b6578063acff86871161006f578063acff8687146104cf578063bed551671461050f578063d1d54c051461052f578063d29079bb1461054f578063eb826a5f1461056f578063f56052161461058f57600080fd5b80637acc0b20146102de578063802125f5146103765780638392fe31146103965780638da5cb5b14610457578063931e52ee1461048f578063a0440426146104bc57600080fd5b806337bdc99b1161010857806337bdc99b146102115780634042f8b5146102315780634d41cd62146102515780635ec5d856146102715780636d148f8414610291578063738f74e1146102b157600080fd5b8063214bcce01461014557806326c1e7501461017b578063278ecde1146101ab5780632939359d146101cd57806333bc844f146101f1575b600080fd5b34801561015157600080fd5b506101656101603660046120c7565b6105af565b60405161017291906120fa565b60405180910390f35b34801561018757600080fd5b5061019b61019636600461219b565b61074c565b60405161017294939291906121fa565b3480156101b757600080fd5b506101cb6101c636600461219b565b61088e565b005b3480156101d957600080fd5b506101e360085481565b604051908152602001610172565b3480156101fd57600080fd5b506101cb61020c36600461223f565b610cc5565b34801561021d57600080fd5b506101cb61022c36600461219b565b610f4c565b34801561023d57600080fd5b506101cb61024c366004612304565b6110f7565b34801561025d57600080fd5b5061016561026c3660046120c7565b6111bf565b34801561027d57600080fd5b506101cb61028c36600461223f565b611348565b34801561029d57600080fd5b506101cb6102ac36600461219b565b6113fc565b3480156102bd57600080fd5b506101e36102cc36600461223f565b60066020526000908152604090205481565b3480156102ea57600080fd5b5061033b6102f936600461219b565b6003602081905260009182526040909120805460018201546002830154938301546004840154600590940154929491936001600160a01b039092169290919086565b6040805196875260208701959095526001600160a01b03909316938501939093526060840152608083019190915260a082015260c001610172565b34801561038257600080fd5b506101cb61039136600461219b565b61144b565b3480156103a257600080fd5b5061040a6103b136600461219b565b60026020819052600091825260409091208054600182015492820154600383015460048401546005909401549294936001600160a01b0392831693929091169160ff808216916101008104821691620100009091041688565b6040805198895260208901979097526001600160a01b03958616968801969096529390921660608601526080850152151560a0840152151560c0830152151560e082015261010001610172565b34801561046357600080fd5b50600054610477906001600160a01b031681565b6040516001600160a01b039091168152602001610172565b34801561049b57600080fd5b506101e36104aa36600461223f565b60056020526000908152604090205481565b6101cb6104ca366004612371565b611800565b3480156104db57600080fd5b506104ff6104ea36600461219b565b60076020526000908152604090205460ff1681565b6040519015158152602001610172565b34801561051b57600080fd5b5061016561052a366004612371565b611b6c565b34801561053b57600080fd5b50600154610477906001600160a01b031681565b34801561055b57600080fd5b506101cb61056a36600461219b565b611cdd565b34801561057b57600080fd5b506101cb61058a36600461219b565b611dc2565b34801561059b57600080fd5b506101cb6105aa366004612393565b611ef6565b6060818311156105da5760405162461bcd60e51b81526004016105d1906123da565b60405180910390fd5b60006105e68484612417565b6105f190600161242a565b905060008167ffffffffffffffff81111561060e5761060e612261565b60405190808252806020026020018201604052801561064757816020015b610634612067565b81526020019060019003908161062c5790505b5090506000855b858111610740576000818152600260205260409020600301546001600160a01b03808a1691160361072e576000818152600260208181526040928390208351610100808201865282548252600183015493820193909352928101546001600160a01b0390811694840194909452600381015490931660608301526004830154608083015260059092015460ff808216151560a08401529281048316151560c0830152620100009004909116151560e082015283518490849081106107145761071461243d565b6020026020010181905250818061072a90612453565b9250505b8061073881612453565b91505061064e565b50909695505050505050565b6004602052600090815260409020805460018201805491929161076e9061246c565b80601f016020809104026020016040519081016040528092919081815260200182805461079a9061246c565b80156107e75780601f106107bc576101008083540402835291602001916107e7565b820191906000526020600020905b8154815290600101906020018083116107ca57829003601f168201915b5050505050908060020180546107fc9061246c565b80601f01602080910402602001604051908101604052809291908181526020018280546108289061246c565b80156108755780601f1061084a57610100808354040283529160200191610875565b820191906000526020600020905b81548152906001019060200180831161085857829003601f168201915b505050600390930154919250506001600160a01b031684565b60008181526002602081815260408084208151610100808201845282548252600180840154838701819052968401546001600160a01b0390811684870152600380860154909116606085015260048086015460808087019190915260059096015460ff808216151560a08801529481048516151560c0870152620100009004909316151560e08501528789528652848820810154808952918652848820855194850190955284548452840180548998939796929593949392840191906109539061246c565b80601f016020809104026020016040519081016040528092919081815260200182805461097f9061246c565b80156109cc5780601f106109a1576101008083540402835291602001916109cc565b820191906000526020600020905b8154815290600101906020018083116109af57829003601f168201915b505050505081526020016002820180546109e59061246c565b80601f0160208091040260200160405190810160405280929190818152602001828054610a119061246c565b8015610a5e5780601f10610a3357610100808354040283529160200191610a5e565b820191906000526020600020905b815481529060010190602001808311610a4157829003601f168201915b5050509183525050600391909101546001600160a01b039081166020909201919091526060820151919250163314610aa85760405162461bcd60e51b81526004016105d1906124a6565b60008681526007602052604090205460ff16610b125760405162461bcd60e51b815260206004820152602360248201527f41707065616c206d75737420626520726169736564206265666f7265207265666044820152621d5b9960ea1b60648201526084016105d1565b60008681526002602052604090206005015460ff1615610b445760405162461bcd60e51b81526004016105d1906124ef565b60008681526002602052604090206005015462010000900460ff1615610bac5760405162461bcd60e51b815260206004820152601960248201527f507572636861736520616c726561647920726566756e6465640000000000000060448201526064016105d1565b60015460008781526002602081905260409182902090810154600491820154925163a9059cbb60e01b81526001600160a01b0391821692810192909252602482019290925291169063a9059cbb906044016020604051808303816000875af1158015610c1c573d6000803e3d6000fd5b505050506040513d601f19601f82011682018060405250810190610c409190612526565b50600086815260026020908152604091829020600381015460049091015483518a8152928301526001600160a01b03169133917f82c4addd7df9bb5b801dcdeb0a67eb8bda3d9e213af78965d584b0be8cb63660910160405180910390a350505060009283525050600260205260409020600501805462ff0000191662010000179055565b6001600160a01b0380821660009081526006602090815260408083205480845260028084528285208351610100808201865282548252600180840154838901819052948401548a1683880152600380850154909a16606084015260048085015460808086019190915260059095015460ff808216151560a08701529381048416151560c0860152620100009004909216151560e084015284895298875285882089015480895290875285882086519384019096528554835297850180549498919793969195939492939291840191610d9c9061246c565b80601f0160208091040260200160405190810160405280929190818152602001828054610dc89061246c565b8015610e155780601f10610dea57610100808354040283529160200191610e15565b820191906000526020600020905b815481529060010190602001808311610df857829003601f168201915b50505050508152602001600282018054610e2e9061246c565b80601f0160208091040260200160405190810160405280929190818152602001828054610e5a9061246c565b8015610ea75780601f10610e7c57610100808354040283529160200191610ea7565b820191906000526020600020905b815481529060010190602001808311610e8a57829003601f168201915b5050509183525050600391909101546001600160a01b039081166020909201919091526060820151919250163314610ef15760405162461bcd60e51b81526004016105d1906124a6565b6001600160a01b03861660008181526006602090815260408083208054939055518281529192917f6db674a69e9ad4a55205180b47485cdc0476c8986d824e9699b2e271382d0c46910160405180910390a250505050505050565b6000818152600260208190526040909120015481906001600160a01b03163314610fca5760405162461bcd60e51b815260206004820152602960248201527f4f6e6c79207468652042757965722063616e20706572666f726d20746869732060448201526837b832b930ba34b7b760b91b60648201526084016105d1565b60008281526002602052604090206005015460ff1615610ffc5760405162461bcd60e51b81526004016105d1906124ef565b600154600083815260026020526040908190206003810154600491820154925163a9059cbb60e01b81526001600160a01b0391821692810192909252602482019290925291169063a9059cbb906044016020604051808303816000875af115801561106b573d6000803e3d6000fd5b505050506040513d601f19601f8201168201806040525081019061108f9190612526565b506000828152600260205260409081902060058101805460ff1916600117905560040154905133917f2c57dec1db0095a6b800c2698d5bbceef2c180c6ac43429769a719658983f677916110eb91868252602082015260400190565b60405180910390a25050565b60408051608081018252848152602080820185815282840185905233606084015260008781526004909252929020815181559151909190600182019061113d9082612597565b50604082015160028201906111529082612597565b5060609190910151600390910180546001600160a01b0319166001600160a01b03909216919091179055604051339084907f8da1d1310292fe3fc539b9bdc9f9707a8c8ab7a87386069342d1a0cd167a4c2c906111b29086908690612657565b60405180910390a3505050565b6060818311156111e15760405162461bcd60e51b81526004016105d1906123da565b60006111ed8484612417565b6111f890600161242a565b905060008167ffffffffffffffff81111561121557611215612261565b60405190808252806020026020018201604052801561124e57816020015b61123b612067565b8152602001906001900390816112335790505b5090506000855b85811161074057600081815260026020819052604090912001546001600160a01b03808a16911603611336576000818152600260208181526040928390208351610100808201865282548252600183015493820193909352928101546001600160a01b0390811694840194909452600381015490931660608301526004830154608083015260059092015460ff808216151560a08401529281048316151560c0830152620100009004909116151560e0820152835184908490811061131c5761131c61243d565b6020026020010181905250818061133290612453565b9250505b8061134081612453565b915050611255565b6001600160a01b0381811660009081526006602090815260408083205480845260049092529091206003015490911633146113955760405162461bcd60e51b81526004016105d1906124a6565b6001600160a01b03821660008181526006602081815260408084208054600584528286208190559383529390935591518181529092917f8858b15a4f1540b0df00082304b78a2330d9ed2951d395bbccb90c257e298ab491015b60405180910390a2505050565b3360008181526006602052604090819020839055517f476871eccc7ab517c1c23acfd3954e8ed6fe523bbe0b0ab9a9611d3324ec08ee906114409084815260200190565b60405180910390a250565b60008181526002602081815260408084208151610100808201845282548252600180840154838701819052968401546001600160a01b0390811684870152600380860154909116606085015260048086015460808087019190915260059096015460ff808216151560a08801529481048516151560c0870152620100009004909316151560e08501528789528652848820810154808952918652848820855194850190955284548452840180548998939796929593949392840191906115109061246c565b80601f016020809104026020016040519081016040528092919081815260200182805461153c9061246c565b80156115895780601f1061155e57610100808354040283529160200191611589565b820191906000526020600020905b81548152906001019060200180831161156c57829003601f168201915b505050505081526020016002820180546115a29061246c565b80601f01602080910402602001604051908101604052809291908181526020018280546115ce9061246c565b801561161b5780601f106115f05761010080835404028352916020019161161b565b820191906000526020600020905b8154815290600101906020018083116115fe57829003601f168201915b5050509183525050600391909101546001600160a01b0390811660209092019190915260608201519192501633146116655760405162461bcd60e51b81526004016105d1906124a6565b60008681526007602052604090205460ff166116cf5760405162461bcd60e51b8152602060048201526024808201527f41707065616c206d75737420626520726169736564206265666f72652072656c6044820152636561736560e01b60648201526084016105d1565b60008681526002602052604090206005015460ff16156117015760405162461bcd60e51b81526004016105d1906124ef565b600154600087815260026020526040908190206003810154600491820154925163a9059cbb60e01b81526001600160a01b0391821692810192909252602482019290925291169063a9059cbb906044016020604051808303816000875af1158015611770573d6000803e3d6000fd5b505050506040513d601f19601f820116820180604052508101906117949190612526565b506000868152600260205260409081902060058101805460ff1916600117905560040154905133917f2c57dec1db0095a6b800c2698d5bbceef2c180c6ac43429769a719658983f677916117f0918a8252602082015260400190565b60405180910390a2505050505050565b6000828152600360208190526040909120015481111561187b5760405162461bcd60e51b815260206004820152603060248201527f496e73756666696369656e7420696e76656e746f7279206f722070726f64756360448201526f1d08191bd95cc81b9bdd08195e1a5cdd60821b60648201526084016105d1565b600082815260036020526040812060040154611898908390612685565b6001546040516323b872dd60e01b8152336004820152306024820152604481018390529192506001600160a01b0316906323b872dd906064016020604051808303816000875af11580156118f0573d6000803e3d6000fd5b505050506040513d601f19601f820116820180604052508101906119149190612526565b506008805490600061192583612453565b9091555050600854604080519182526020820183905233917f0f4a9c70987615d71a1085cae3c6fb0c2855f81a5ec62cb7ee3136d5407e357c910160405180910390a260008381526003602081905260408220018054849290611989908490612417565b9091555050600083815260036020526040812060050180548492906119af90849061242a565b925050819055506040518061010001604052806008548152602001848152602001336001600160a01b031681526020016003600086815260200190815260200160002060020160009054906101000a90046001600160a01b03166001600160a01b0316815260200182815260200160001515815260200160001515815260200160001515815250600260006008548152602001908152602001600020600082015181600001556020820151816001015560408201518160020160006101000a8154816001600160a01b0302191690836001600160a01b0316021790555060608201518160030160006101000a8154816001600160a01b0302191690836001600160a01b031602179055506080820151816004015560a08201518160050160006101000a81548160ff02191690831515021790555060c08201518160050160016101000a81548160ff02191690831515021790555060e08201518160050160026101000a81548160ff021916908315150217905550905050336001600160a01b03167f0f4a9c70987615d71a1085cae3c6fb0c2855f81a5ec62cb7ee3136d5407e357c600854846040516113ef929190918252602082015260400190565b606081831115611b8e5760405162461bcd60e51b81526004016105d1906123da565b6000611b9a8484612417565b611ba590600161242a565b905060008167ffffffffffffffff811115611bc257611bc2612261565b604051908082528060200260200182016040528015611bfb57816020015b611be8612067565b815260200190600190039081611be05790505b5090506000855b858111611cd0576000818152600260208181526040928390208351610100808201865282548252600183015493820193909352928101546001600160a01b0390811694840194909452600381015490931660608301526004830154608083015260059092015460ff808216151560a08401529281048316151560c0830152620100009004909116151560e08201528351849084908110611ca457611ca461243d565b60200260200101819052508180611cba90612453565b9250508080611cc890612453565b915050611c02565b5090925050505b92915050565b600081815260026020819052604090912001546001600160a01b0316331480611d1f57506000818152600260205260409020600301546001600160a01b031633145b611d7c5760405162461bcd60e51b815260206004820152602860248201527f4f6e6c79206275796572206f722073656c6c65722063616e20726169736520616044820152671b88185c1c19585b60c21b60648201526084016105d1565b600081815260076020526040808220805460ff1916600117905551339183917f84fe926178a9a001285f5126878cb13cc2d8c091b23b313f76a0875d230b627c9190a350565b60008181526002602052604090206003015481906001600160a01b03163314611e405760405162461bcd60e51b815260206004820152602a60248201527f4f6e6c79207468652053656c6c65722063616e20706572666f726d20746869736044820152691037b832b930ba34b7b760b11b60648201526084016105d1565b600082815260026020526040902060050154610100900460ff1615611e995760405162461bcd60e51b815260206004820152600f60248201526e105b1c9958591e481cda1a5c1c1959608a1b60448201526064016105d1565b6000828152600260205260409081902060058101805461ff00191661010017905560040154905133917f47357acf7cd02d7a69ba4d681fead1ba8015768d36e56cdd2340d1cc0a148d64916110eb91868252602082015260400190565b3360009081526005602052604090205484908114611f655760405162461bcd60e51b815260206004820152602660248201527f4f6e6c7920617070726f7665642073656c6c6572732063616e206164642070726044820152656f647563747360d01b60648201526084016105d1565b6040518060c00160405280878152602001868152602001856001600160a01b03168152602001848152602001838152602001600081525060036000888152602001908152602001600020600082015181600001556020820151816001015560408201518160020160006101000a8154816001600160a01b0302191690836001600160a01b03160217905550606082015181600301556080820151816004015560a08201518160050155905050836001600160a01b031685877f345fa55a3aa949b55e669106a777dda9c249c82dcc42068a111bcd55016cf6828686604051612057929190918252602082015260400190565b60405180910390a4505050505050565b6040805161010081018252600080825260208201819052918101829052606081018290526080810182905260a0810182905260c0810182905260e081019190915290565b80356001600160a01b03811681146120c257600080fd5b919050565b6000806000606084860312156120dc57600080fd5b6120e5846120ab565b95602085013595506040909401359392505050565b602080825282518282018190526000919060409081850190868401855b8281101561218e578151805185528681015187860152858101516001600160a01b0390811687870152606080830151909116908601526080808201519086015260a08082015115159086015260c08082015115159086015260e0908101511515908501526101009093019290850190600101612117565b5091979650505050505050565b6000602082840312156121ad57600080fd5b5035919050565b6000815180845260005b818110156121da576020818501810151868301820152016121be565b506000602082860101526020601f19601f83011685010191505092915050565b84815260806020820152600061221360808301866121b4565b828103604084015261222581866121b4565b91505060018060a01b038316606083015295945050505050565b60006020828403121561225157600080fd5b61225a826120ab565b9392505050565b634e487b7160e01b600052604160045260246000fd5b600082601f83011261228857600080fd5b813567ffffffffffffffff808211156122a3576122a3612261565b604051601f8301601f19908116603f011681019082821181831017156122cb576122cb612261565b816040528381528660208588010111156122e457600080fd5b836020870160208301376000602085830101528094505050505092915050565b60008060006060848603121561231957600080fd5b83359250602084013567ffffffffffffffff8082111561233857600080fd5b61234487838801612277565b9350604086013591508082111561235a57600080fd5b5061236786828701612277565b9150509250925092565b6000806040838503121561238457600080fd5b50508035926020909101359150565b600080600080600060a086880312156123ab57600080fd5b85359450602086013593506123c2604087016120ab565b94979396509394606081013594506080013592915050565b6020808252600d908201526c496e76616c69642072616e676560981b604082015260600190565b634e487b7160e01b600052601160045260246000fd5b81810381811115611cd757611cd7612401565b80820180821115611cd757611cd7612401565b634e487b7160e01b600052603260045260246000fd5b60006001820161246557612465612401565b5060010190565b600181811c9082168061248057607f821691505b6020821081036124a057634e487b7160e01b600052602260045260246000fd5b50919050565b60208082526029908201527f4f6e6c79207468652052756c65722063616e20706572666f726d20746869732060408201526837b832b930ba34b7b760b91b606082015260800190565b6020808252601a908201527f46756e64732061726520616c72656164792072656c6561736564000000000000604082015260600190565b60006020828403121561253857600080fd5b8151801515811461225a57600080fd5b601f82111561259257600081815260208120601f850160051c8101602086101561256f5750805b601f850160051c820191505b8181101561258e5782815560010161257b565b5050505b505050565b815167ffffffffffffffff8111156125b1576125b1612261565b6125c5816125bf845461246c565b84612548565b602080601f8311600181146125fa57600084156125e25750858301515b600019600386901b1c1916600185901b17855561258e565b600085815260208120601f198616915b828110156126295788860151825594840194600190910190840161260a565b50858210156126475787850151600019600388901b60f8161c191681555b5050505050600190811b01905550565b60408152600061266a60408301856121b4565b828103602084015261267c81856121b4565b95945050505050565b8082028115828204841417611cd757611cd761240156fea26469706673582212204717841a2c27bb9c1c1ca2d344a8a9c43a25f4a8d1a543a73140ca5245eb172564736f6c63430008110033",
  "devdoc": {
    "kind": "dev",
    "methods": {},
    "version": 1
  },
  "userdoc": {
    "kind": "user",
    "methods": {},
    "version": 1
  },
  "storageLayout": {
    "storage": [
      {
        "astId": 2667,
        "contract": "contracts/Duniverse.sol:Duniverse",
        "label": "owner",
        "offset": 0,
        "slot": "0",
        "type": "t_address"
      },
      {
        "astId": 2669,
        "contract": "contracts/Duniverse.sol:Duniverse",
        "label": "MOCKUSDT_ADDRESS",
        "offset": 0,
        "slot": "1",
        "type": "t_address"
      },
      {
        "astId": 2674,
        "contract": "contracts/Duniverse.sol:Duniverse",
        "label": "purchases",
        "offset": 0,
        "slot": "2",
        "type": "t_mapping(t_uint256,t_struct(Purchase)2724_storage)"
      },
      {
        "astId": 2679,
        "contract": "contracts/Duniverse.sol:Duniverse",
        "label": "products",
        "offset": 0,
        "slot": "3",
        "type": "t_mapping(t_uint256,t_struct(Product)2737_storage)"
      },
      {
        "astId": 2684,
        "contract": "contracts/Duniverse.sol:Duniverse",
        "label": "planets",
        "offset": 0,
        "slot": "4",
        "type": "t_mapping(t_uint256,t_struct(Planet)2707_storage)"
      },
      {
        "astId": 2688,
        "contract": "contracts/Duniverse.sol:Duniverse",
        "label": "approvedSellers",
        "offset": 0,
        "slot": "5",
        "type": "t_mapping(t_address,t_uint256)"
      },
      {
        "astId": 2692,
        "contract": "contracts/Duniverse.sol:Duniverse",
        "label": "approvalRequests",
        "offset": 0,
        "slot": "6",
        "type": "t_mapping(t_address,t_uint256)"
      },
      {
        "astId": 2696,
        "contract": "contracts/Duniverse.sol:Duniverse",
        "label": "appeals",
        "offset": 0,
        "slot": "7",
        "type": "t_mapping(t_uint256,t_bool)"
      },
      {
        "astId": 2698,
        "contract": "contracts/Duniverse.sol:Duniverse",
        "label": "numPurchases",
        "offset": 0,
        "slot": "8",
        "type": "t_uint256"
      }
    ],
    "types": {
      "t_address": {
        "encoding": "inplace",
        "label": "address",
        "numberOfBytes": "20"
      },
      "t_bool": {
        "encoding": "inplace",
        "label": "bool",
        "numberOfBytes": "1"
      },
      "t_mapping(t_address,t_uint256)": {
        "encoding": "mapping",
        "key": "t_address",
        "label": "mapping(address => uint256)",
        "numberOfBytes": "32",
        "value": "t_uint256"
      },
      "t_mapping(t_uint256,t_bool)": {
        "encoding": "mapping",
        "key": "t_uint256",
        "label": "mapping(uint256 => bool)",
        "numberOfBytes": "32",
        "value": "t_bool"
      },
      "t_mapping(t_uint256,t_struct(Planet)2707_storage)": {
        "encoding": "mapping",
        "key": "t_uint256",
        "label": "mapping(uint256 => struct Duniverse.Planet)",
        "numberOfBytes": "32",
        "value": "t_struct(Planet)2707_storage"
      },
      "t_mapping(t_uint256,t_struct(Product)2737_storage)": {
        "encoding": "mapping",
        "key": "t_uint256",
        "label": "mapping(uint256 => struct Duniverse.Product)",
        "numberOfBytes": "32",
        "value": "t_struct(Product)2737_storage"
      },
      "t_mapping(t_uint256,t_struct(Purchase)2724_storage)": {
        "encoding": "mapping",
        "key": "t_uint256",
        "label": "mapping(uint256 => struct Duniverse.Purchase)",
        "numberOfBytes": "32",
        "value": "t_struct(Purchase)2724_storage"
      },
      "t_string_storage": {
        "encoding": "bytes",
        "label": "string",
        "numberOfBytes": "32"
      },
      "t_struct(Planet)2707_storage": {
        "encoding": "inplace",
        "label": "struct Duniverse.Planet",
        "members": [
          {
            "astId": 2700,
            "contract": "contracts/Duniverse.sol:Duniverse",
            "label": "planetId",
            "offset": 0,
            "slot": "0",
            "type": "t_uint256"
          },
          {
            "astId": 2702,
            "contract": "contracts/Duniverse.sol:Duniverse",
            "label": "planetName",
            "offset": 0,
            "slot": "1",
            "type": "t_string_storage"
          },
          {
            "astId": 2704,
            "contract": "contracts/Duniverse.sol:Duniverse",
            "label": "planetDescription",
            "offset": 0,
            "slot": "2",
            "type": "t_string_storage"
          },
          {
            "astId": 2706,
            "contract": "contracts/Duniverse.sol:Duniverse",
            "label": "ruler",
            "offset": 0,
            "slot": "3",
            "type": "t_address"
          }
        ],
        "numberOfBytes": "128"
      },
      "t_struct(Product)2737_storage": {
        "encoding": "inplace",
        "label": "struct Duniverse.Product",
        "members": [
          {
            "astId": 2726,
            "contract": "contracts/Duniverse.sol:Duniverse",
            "label": "productId",
            "offset": 0,
            "slot": "0",
            "type": "t_uint256"
          },
          {
            "astId": 2728,
            "contract": "contracts/Duniverse.sol:Duniverse",
            "label": "planetId",
            "offset": 0,
            "slot": "1",
            "type": "t_uint256"
          },
          {
            "astId": 2730,
            "contract": "contracts/Duniverse.sol:Duniverse",
            "label": "seller",
            "offset": 0,
            "slot": "2",
            "type": "t_address"
          },
          {
            "astId": 2732,
            "contract": "contracts/Duniverse.sol:Duniverse",
            "label": "quantity",
            "offset": 0,
            "slot": "3",
            "type": "t_uint256"
          },
          {
            "astId": 2734,
            "contract": "contracts/Duniverse.sol:Duniverse",
            "label": "price",
            "offset": 0,
            "slot": "4",
            "type": "t_uint256"
          },
          {
            "astId": 2736,
            "contract": "contracts/Duniverse.sol:Duniverse",
            "label": "sales",
            "offset": 0,
            "slot": "5",
            "type": "t_uint256"
          }
        ],
        "numberOfBytes": "192"
      },
      "t_struct(Purchase)2724_storage": {
        "encoding": "inplace",
        "label": "struct Duniverse.Purchase",
        "members": [
          {
            "astId": 2709,
            "contract": "contracts/Duniverse.sol:Duniverse",
            "label": "purchaseId",
            "offset": 0,
            "slot": "0",
            "type": "t_uint256"
          },
          {
            "astId": 2711,
            "contract": "contracts/Duniverse.sol:Duniverse",
            "label": "productId",
            "offset": 0,
            "slot": "1",
            "type": "t_uint256"
          },
          {
            "astId": 2713,
            "contract": "contracts/Duniverse.sol:Duniverse",
            "label": "buyer",
            "offset": 0,
            "slot": "2",
            "type": "t_address"
          },
          {
            "astId": 2715,
            "contract": "contracts/Duniverse.sol:Duniverse",
            "label": "seller",
            "offset": 0,
            "slot": "3",
            "type": "t_address"
          },
          {
            "astId": 2717,
            "contract": "contracts/Duniverse.sol:Duniverse",
            "label": "amount",
            "offset": 0,
            "slot": "4",
            "type": "t_uint256"
          },
          {
            "astId": 2719,
            "contract": "contracts/Duniverse.sol:Duniverse",
            "label": "isReleased",
            "offset": 0,
            "slot": "5",
            "type": "t_bool"
          },
          {
            "astId": 2721,
            "contract": "contracts/Duniverse.sol:Duniverse",
            "label": "isDelivered",
            "offset": 1,
            "slot": "5",
            "type": "t_bool"
          },
          {
            "astId": 2723,
            "contract": "contracts/Duniverse.sol:Duniverse",
            "label": "isRefunded",
            "offset": 2,
            "slot": "5",
            "type": "t_bool"
          }
        ],
        "numberOfBytes": "192"
      },
      "t_uint256": {
        "encoding": "inplace",
        "label": "uint256",
        "numberOfBytes": "32"
      }
    }
  }
}